{
  "contractName": "Authentication",
  "abi": [
    {
      "anonymous": false,
      "inputs": [
        {
          "indexed": true,
          "internalType": "address",
          "name": "userAddress",
          "type": "address"
        },
        {
          "indexed": false,
          "internalType": "string",
          "name": "username",
          "type": "string"
        },
        {
          "indexed": false,
          "internalType": "string",
          "name": "email",
          "type": "string"
        }
      ],
      "name": "UserRegistered",
      "type": "event"
    },
    {
      "inputs": [
        {
          "internalType": "address",
          "name": "",
          "type": "address"
        }
      ],
      "name": "users",
      "outputs": [
        {
          "internalType": "string",
          "name": "username",
          "type": "string"
        },
        {
          "internalType": "string",
          "name": "email",
          "type": "string"
        },
        {
          "internalType": "bytes32",
          "name": "hashedPassword",
          "type": "bytes32"
        },
        {
          "internalType": "address",
          "name": "walletAddress",
          "type": "address"
        }
      ],
      "stateMutability": "view",
      "type": "function",
      "constant": true
    },
    {
      "inputs": [
        {
          "internalType": "string",
          "name": "_username",
          "type": "string"
        },
        {
          "internalType": "string",
          "name": "_email",
          "type": "string"
        },
        {
          "internalType": "string",
          "name": "_password",
          "type": "string"
        }
      ],
      "name": "signup",
      "outputs": [],
      "stateMutability": "nonpayable",
      "type": "function"
    },
    {
      "inputs": [
        {
          "internalType": "string",
          "name": "_email",
          "type": "string"
        },
        {
          "internalType": "string",
          "name": "_password",
          "type": "string"
        }
      ],
      "name": "signin",
      "outputs": [
        {
          "internalType": "bool",
          "name": "",
          "type": "bool"
        }
      ],
      "stateMutability": "view",
      "type": "function",
      "constant": true
    },
    {
      "inputs": [
        {
          "internalType": "string",
          "name": "_password",
          "type": "string"
        }
      ],
      "name": "hashPassword",
      "outputs": [
        {
          "internalType": "bytes32",
          "name": "",
          "type": "bytes32"
        }
      ],
      "stateMutability": "pure",
      "type": "function",
      "constant": true
    },
    {
      "inputs": [
        {
          "internalType": "address",
          "name": "_userAddress",
          "type": "address"
        },
        {
          "internalType": "address",
          "name": "_walletAddress",
          "type": "address"
        }
      ],
      "name": "assignWalletAddress",
      "outputs": [],
      "stateMutability": "nonpayable",
      "type": "function"
    }
  ],
  "bytecode": "0x608060405234801561001057600080fd5b50611146806100206000396000f3fe608060405234801561001057600080fd5b50600436106100575760003560e01c80633f75a07d1461005c578063990a4a9a1461008c578063a87430ba146100bc578063ac0861c3146100ef578063ccb51e8c1461010b575b600080fd5b610076600480360381019061007191906109d8565b610127565b6040516100839190610a3a565b60405180910390f35b6100a660048036038101906100a19190610a55565b610157565b6040516100b39190610ae8565b60405180910390f35b6100d660048036038101906100d19190610b61565b610225565b6040516100e69493929190610c25565b60405180910390f35b61010960048036038101906101049190610c78565b610385565b005b61012560048036038101906101209190610d1f565b610687565b005b60008160405160200161013a9190610d9b565b604051602081830303815290604052805190602001209050919050565b60008061016383610127565b905060008060003373ffffffffffffffffffffffffffffffffffffffff1673ffffffffffffffffffffffffffffffffffffffff1681526020019081526020016000209050846040516020016101b89190610d9b565b60405160208183030381529060405280519060200120816001016040516020016101e29190610ea6565b604051602081830303815290604052805190602001201480156102085750818160020154145b156102185760019250505061021f565b6000925050505b92915050565b600060205280600052604060002060009150905080600001805461024890610de1565b80601f016020809104026020016040519081016040528092919081815260200182805461027490610de1565b80156102c15780601f10610296576101008083540402835291602001916102c1565b820191906000526020600020905b8154815290600101906020018083116102a457829003601f168201915b5050505050908060010180546102d690610de1565b80601f016020809104026020016040519081016040528092919081815260200182805461030290610de1565b801561034f5780601f106103245761010080835404028352916020019161034f565b820191906000526020600020905b81548152906001019060200180831161033257829003601f168201915b5050505050908060020154908060030160009054906101000a900473ffffffffffffffffffffffffffffffffffffffff16905084565b60008351116103c9576040517f08c379a00000000000000000000000000000000000000000000000000000000081526004016103c090610f09565b60405180910390fd5b600082511161040d576040517f08c379a000000000000000000000000000000000000000000000000000000000815260040161040490610f75565b60405180910390fd5b6000815111610451576040517f08c379a000000000000000000000000000000000000000000000000000000000815260040161044890610fe1565b60405180910390fd5b600073ffffffffffffffffffffffffffffffffffffffff166000803373ffffffffffffffffffffffffffffffffffffffff1673ffffffffffffffffffffffffffffffffffffffff16815260200190815260200160002060030160009054906101000a900473ffffffffffffffffffffffffffffffffffffffff1673ffffffffffffffffffffffffffffffffffffffff1614610521576040517f08c379a00000000000000000000000000000000000000000000000000000000081526004016105189061104d565b60405180910390fd5b600061052c82610127565b905060405180608001604052808581526020018481526020018281526020013373ffffffffffffffffffffffffffffffffffffffff168152506000803373ffffffffffffffffffffffffffffffffffffffff1673ffffffffffffffffffffffffffffffffffffffff16815260200190815260200160002060008201518160000190805190602001906105bf9291906107db565b5060208201518160010190805190602001906105dc9291906107db565b506040820151816002015560608201518160030160006101000a81548173ffffffffffffffffffffffffffffffffffffffff021916908373ffffffffffffffffffffffffffffffffffffffff1602179055509050503373ffffffffffffffffffffffffffffffffffffffff167f92822564bab8864c3a47b34e8d23fbce5c46234eb5da261f94087b995ac0f33b858560405161067992919061106d565b60405180910390a250505050565b600073ffffffffffffffffffffffffffffffffffffffff166000808473ffffffffffffffffffffffffffffffffffffffff1673ffffffffffffffffffffffffffffffffffffffff16815260200190815260200160002060030160009054906101000a900473ffffffffffffffffffffffffffffffffffffffff1673ffffffffffffffffffffffffffffffffffffffff1614610757576040517f08c379a000000000000000000000000000000000000000000000000000000000815260040161074e906110f0565b60405180910390fd5b806000808473ffffffffffffffffffffffffffffffffffffffff1673ffffffffffffffffffffffffffffffffffffffff16815260200190815260200160002060030160006101000a81548173ffffffffffffffffffffffffffffffffffffffff021916908373ffffffffffffffffffffffffffffffffffffffff1602179055505050565b8280546107e790610de1565b90600052602060002090601f0160209004810192826108095760008555610850565b82601f1061082257805160ff1916838001178555610850565b82800160010185558215610850579182015b8281111561084f578251825591602001919060010190610834565b5b50905061085d9190610861565b5090565b5b8082111561087a576000816000905550600101610862565b5090565b6000604051905090565b600080fd5b600080fd5b600080fd5b600080fd5b6000601f19601f8301169050919050565b7f4e487b7100000000000000000000000000000000000000000000000000000000600052604160045260246000fd5b6108e58261089c565b810181811067ffffffffffffffff82111715610904576109036108ad565b5b80604052505050565b600061091761087e565b905061092382826108dc565b919050565b600067ffffffffffffffff821115610943576109426108ad565b5b61094c8261089c565b9050602081019050919050565b82818337600083830152505050565b600061097b61097684610928565b61090d565b90508281526020810184848401111561099757610996610897565b5b6109a2848285610959565b509392505050565b600082601f8301126109bf576109be610892565b5b81356109cf848260208601610968565b91505092915050565b6000602082840312156109ee576109ed610888565b5b600082013567ffffffffffffffff811115610a0c57610a0b61088d565b5b610a18848285016109aa565b91505092915050565b6000819050919050565b610a3481610a21565b82525050565b6000602082019050610a4f6000830184610a2b565b92915050565b60008060408385031215610a6c57610a6b610888565b5b600083013567ffffffffffffffff811115610a8a57610a8961088d565b5b610a96858286016109aa565b925050602083013567ffffffffffffffff811115610ab757610ab661088d565b5b610ac3858286016109aa565b9150509250929050565b60008115159050919050565b610ae281610acd565b82525050565b6000602082019050610afd6000830184610ad9565b92915050565b600073ffffffffffffffffffffffffffffffffffffffff82169050919050565b6000610b2e82610b03565b9050919050565b610b3e81610b23565b8114610b4957600080fd5b50565b600081359050610b5b81610b35565b92915050565b600060208284031215610b7757610b76610888565b5b6000610b8584828501610b4c565b91505092915050565b600081519050919050565b600082825260208201905092915050565b60005b83811015610bc8578082015181840152602081019050610bad565b83811115610bd7576000848401525b50505050565b6000610be882610b8e565b610bf28185610b99565b9350610c02818560208601610baa565b610c0b8161089c565b840191505092915050565b610c1f81610b23565b82525050565b60006080820190508181036000830152610c3f8187610bdd565b90508181036020830152610c538186610bdd565b9050610c626040830185610a2b565b610c6f6060830184610c16565b95945050505050565b600080600060608486031215610c9157610c90610888565b5b600084013567ffffffffffffffff811115610caf57610cae61088d565b5b610cbb868287016109aa565b935050602084013567ffffffffffffffff811115610cdc57610cdb61088d565b5b610ce8868287016109aa565b925050604084013567ffffffffffffffff811115610d0957610d0861088d565b5b610d15868287016109aa565b9150509250925092565b60008060408385031215610d3657610d35610888565b5b6000610d4485828601610b4c565b9250506020610d5585828601610b4c565b9150509250929050565b600081905092915050565b6000610d7582610b8e565b610d7f8185610d5f565b9350610d8f818560208601610baa565b80840191505092915050565b6000610da78284610d6a565b915081905092915050565b7f4e487b7100000000000000000000000000000000000000000000000000000000600052602260045260246000fd5b60006002820490506001821680610df957607f821691505b602082108103610e0c57610e0b610db2565b5b50919050565b60008190508160005260206000209050919050565b60008154610e3481610de1565b610e3e8186610d5f565b94506001821660008114610e595760018114610e6a57610e9d565b60ff19831686528186019350610e9d565b610e7385610e12565b60005b83811015610e9557815481890152600182019150602081019050610e76565b838801955050505b50505092915050565b6000610eb28284610e27565b915081905092915050565b7f557365726e616d65206d757374206e6f7420626520656d707479000000000000600082015250565b6000610ef3601a83610b99565b9150610efe82610ebd565b602082019050919050565b60006020820190508181036000830152610f2281610ee6565b9050919050565b7f456d61696c206d757374206e6f7420626520656d707479000000000000000000600082015250565b6000610f5f601783610b99565b9150610f6a82610f29565b602082019050919050565b60006020820190508181036000830152610f8e81610f52565b9050919050565b7f50617373776f7264206d757374206e6f7420626520656d707479000000000000600082015250565b6000610fcb601a83610b99565b9150610fd682610f95565b602082019050919050565b60006020820190508181036000830152610ffa81610fbe565b9050919050565b7f5573657220616c72656164792072657a67697374657265640000000000000000600082015250565b6000611037601883610b99565b915061104282611001565b602082019050919050565b600060208201905081810360008301526110668161102a565b9050919050565b600060408201905081810360008301526110878185610bdd565b9050818103602083015261109b8184610bdd565b90509392505050565b7f57616c6c657420616c72656164792061737369676e6564000000000000000000600082015250565b60006110da601783610b99565b91506110e5826110a4565b602082019050919050565b60006020820190508181036000830152611109816110cd565b905091905056fea26469706673582212202d92c3d384c18baff0206e21ccd1887ca2bb15b98192424e1f2085f8d6bdae4264736f6c634300080d0033",
  "immutableReferences": {},
  "source": "pragma solidity >=0.4.22 <0.9.0;\r\n\r\ncontract Authentication {\r\n    // Struct to represent a user\r\n    struct User {\r\n        string username;\r\n        string email;\r\n        bytes32 hashedPassword;\r\n        address walletAddress;\r\n    }\r\n\r\n    // Mapping to store users\r\n    mapping(address => User) public users;\r\n\r\n    // Event to log user registration\r\n    event UserRegistered(address indexed userAddress, string username, string email);\r\n\r\n    // Function to register a new user\r\n    function signup(string memory _username, string memory _email, string memory _password) public {\r\n        require(bytes(_username).length > 0, \"Username must not be empty\");\r\n        require(bytes(_email).length > 0, \"Email must not be empty\");\r\n        require(bytes(_password).length > 0, \"Password must not be empty\");\r\n        require(users[msg.sender].walletAddress == address(0), \"User already rezgistered\");\r\n\r\n        bytes32 hashedPassword = hashPassword(_password);\r\n\r\n        // Store user details\r\n        users[msg.sender] = User(_username, _email, hashedPassword, msg.sender);\r\n\r\n        // Emit event\r\n        emit UserRegistered(msg.sender, _username, _email);\r\n    }\r\n\r\n    // Function to sign in a user\r\n    function signin(string memory _email, string memory _password) public view returns (bool) {\r\n        bytes32 hashedPassword = hashPassword(_password);\r\n        User storage user = users[msg.sender];\r\n\r\n        // Check if user exists and password matches\r\n        if (keccak256(abi.encodePacked(user.email)) == keccak256(abi.encodePacked(_email)) && user.hashedPassword == hashedPassword) {\r\n            return true;\r\n        } else {\r\n            return false;\r\n        }\r\n    }\r\n\r\n    // Function to hash a password using keccak256 (SHA-3)\r\n    function hashPassword(string memory _password) public pure returns (bytes32) {\r\n        return keccak256(abi.encodePacked(_password));\r\n    }\r\n\r\n    // Function to assign a wallet address to a user\r\n    function assignWalletAddress(address _userAddress, address _walletAddress) public {\r\n        require(users[_userAddress].walletAddress == address(0), \"Wallet already assigned\");\r\n        users[_userAddress].walletAddress = _walletAddress;\r\n    }\r\n}\r\n",
  "sourcePath": "C:\\Users\\SaiDheerajPeketi\\WebstormProjects\\DiabolicTale\\Blockchain\\contracts\\Authentication.sol",
  "compiler": {
    "name": "solc",
    "version": "0.8.13+commit.abaa5c0e.Emscripten.clang"
  },
  "schemaVersion": "3.4.16",
  "updatedAt": "2024-04-20T21:22:06.064Z",
  "networkType": "ethereum",
  "devdoc": {
    "kind": "dev",
    "methods": {},
    "version": 1
  },
  "userdoc": {
    "kind": "user",
    "methods": {},
    "version": 1
  }
}