{
  "contractName": "BuySellTransaction",
  "abi": [
    {
      "inputs": [
        {
          "internalType": "contract SMERegistration",
          "name": "_smeRegistration",
          "type": "address"
        },
        {
          "internalType": "contract FinanceRegistration",
          "name": "_financeRegistration",
          "type": "address"
        }
      ],
      "stateMutability": "nonpayable",
      "type": "constructor"
    },
    {
      "anonymous": false,
      "inputs": [
        {
          "indexed": false,
          "internalType": "uint256",
          "name": "transactionKey",
          "type": "uint256"
        },
        {
          "indexed": false,
          "internalType": "uint256",
          "name": "buyerBid",
          "type": "uint256"
        },
        {
          "indexed": false,
          "internalType": "uint256",
          "name": "sellerBid",
          "type": "uint256"
        },
        {
          "indexed": false,
          "internalType": "uint256",
          "name": "timestamp",
          "type": "uint256"
        },
        {
          "indexed": false,
          "internalType": "string",
          "name": "termsAndConditions",
          "type": "string"
        }
      ],
      "name": "TransactionCreated",
      "type": "event"
    },
    {
      "inputs": [],
      "name": "financeRegistration",
      "outputs": [
        {
          "internalType": "contract FinanceRegistration",
          "name": "",
          "type": "address"
        }
      ],
      "stateMutability": "view",
      "type": "function",
      "constant": true
    },
    {
      "inputs": [],
      "name": "smeRegistration",
      "outputs": [
        {
          "internalType": "contract SMERegistration",
          "name": "",
          "type": "address"
        }
      ],
      "stateMutability": "view",
      "type": "function",
      "constant": true
    },
    {
      "inputs": [],
      "name": "transactionCount",
      "outputs": [
        {
          "internalType": "uint256",
          "name": "",
          "type": "uint256"
        }
      ],
      "stateMutability": "view",
      "type": "function",
      "constant": true
    },
    {
      "inputs": [
        {
          "internalType": "uint256",
          "name": "",
          "type": "uint256"
        }
      ],
      "name": "transactions",
      "outputs": [
        {
          "internalType": "uint256",
          "name": "transactionKey",
          "type": "uint256"
        },
        {
          "internalType": "uint256",
          "name": "buyerBid",
          "type": "uint256"
        },
        {
          "internalType": "uint256",
          "name": "sellerBid",
          "type": "uint256"
        },
        {
          "internalType": "uint256",
          "name": "timestamp",
          "type": "uint256"
        },
        {
          "internalType": "string",
          "name": "termsAndConditions",
          "type": "string"
        }
      ],
      "stateMutability": "view",
      "type": "function",
      "constant": true
    },
    {
      "inputs": [
        {
          "internalType": "uint256",
          "name": "_buyerBid",
          "type": "uint256"
        },
        {
          "internalType": "uint256",
          "name": "_sellerBid",
          "type": "uint256"
        },
        {
          "internalType": "string",
          "name": "_termsAndConditions",
          "type": "string"
        }
      ],
      "name": "createTransaction",
      "outputs": [],
      "stateMutability": "nonpayable",
      "type": "function"
    }
  ],
  "bytecode": "0x608060405234801561001057600080fd5b50604051610a78380380610a788339818101604052810190610032919061016d565b816000806101000a81548173ffffffffffffffffffffffffffffffffffffffff021916908373ffffffffffffffffffffffffffffffffffffffff16021790555080600160006101000a81548173ffffffffffffffffffffffffffffffffffffffff021916908373ffffffffffffffffffffffffffffffffffffffff16021790555050506101ad565b600080fd5b600073ffffffffffffffffffffffffffffffffffffffff82169050919050565b60006100ea826100bf565b9050919050565b60006100fc826100df565b9050919050565b61010c816100f1565b811461011757600080fd5b50565b60008151905061012981610103565b92915050565b600061013a826100df565b9050919050565b61014a8161012f565b811461015557600080fd5b50565b60008151905061016781610141565b92915050565b60008060408385031215610184576101836100ba565b5b60006101928582860161011a565b92505060206101a385828601610158565b9150509250929050565b6108bc806101bc6000396000f3fe608060405234801561001057600080fd5b50600436106100575760003560e01c806368b3f1d11461005c578063892fe0341461007a5780639ace38c214610098578063b77bf600146100cc578063e6cab81f146100ea575b600080fd5b610064610106565b6040516100719190610420565b60405180910390f35b61008261012a565b60405161008f919061045c565b60405180910390f35b6100b260048036038101906100ad91906104c1565b610150565b6040516100c3959493929190610596565b60405180910390f35b6100d461020e565b6040516100e191906105f0565b60405180910390f35b61010460048036038101906100ff9190610740565b610214565b005b60008054906101000a900473ffffffffffffffffffffffffffffffffffffffff1681565b600160009054906101000a900473ffffffffffffffffffffffffffffffffffffffff1681565b600260205280600052604060002060009150905080600001549080600101549080600201549080600301549080600401805461018b906107de565b80601f01602080910402602001604051908101604052809291908181526020018280546101b7906107de565b80156102045780601f106101d957610100808354040283529160200191610204565b820191906000526020600020905b8154815290600101906020018083116101e757829003601f168201915b5050505050905085565b60035481565b600360008154809291906102279061083e565b919050555060004290506040518060a001604052806003548152602001858152602001848152602001828152602001838152506002600060035481526020019081526020016000206000820151816000015560208201518160010155604082015181600201556060820151816003015560808201518160040190805190602001906102b39291906102fe565b509050507f81ca7f38adad473f78f30f742415793eba25f05b3ccc2786f685889637a069fc600354858584866040516102f0959493929190610596565b60405180910390a150505050565b82805461030a906107de565b90600052602060002090601f01602090048101928261032c5760008555610373565b82601f1061034557805160ff1916838001178555610373565b82800160010185558215610373579182015b82811115610372578251825591602001919060010190610357565b5b5090506103809190610384565b5090565b5b8082111561039d576000816000905550600101610385565b5090565b600073ffffffffffffffffffffffffffffffffffffffff82169050919050565b6000819050919050565b60006103e66103e16103dc846103a1565b6103c1565b6103a1565b9050919050565b60006103f8826103cb565b9050919050565b600061040a826103ed565b9050919050565b61041a816103ff565b82525050565b60006020820190506104356000830184610411565b92915050565b6000610446826103ed565b9050919050565b6104568161043b565b82525050565b6000602082019050610471600083018461044d565b92915050565b6000604051905090565b600080fd5b600080fd5b6000819050919050565b61049e8161048b565b81146104a957600080fd5b50565b6000813590506104bb81610495565b92915050565b6000602082840312156104d7576104d6610481565b5b60006104e5848285016104ac565b91505092915050565b6104f78161048b565b82525050565b600081519050919050565b600082825260208201905092915050565b60005b8381101561053757808201518184015260208101905061051c565b83811115610546576000848401525b50505050565b6000601f19601f8301169050919050565b6000610568826104fd565b6105728185610508565b9350610582818560208601610519565b61058b8161054c565b840191505092915050565b600060a0820190506105ab60008301886104ee565b6105b860208301876104ee565b6105c560408301866104ee565b6105d260608301856104ee565b81810360808301526105e4818461055d565b90509695505050505050565b600060208201905061060560008301846104ee565b92915050565b600080fd5b600080fd5b7f4e487b7100000000000000000000000000000000000000000000000000000000600052604160045260246000fd5b61064d8261054c565b810181811067ffffffffffffffff8211171561066c5761066b610615565b5b80604052505050565b600061067f610477565b905061068b8282610644565b919050565b600067ffffffffffffffff8211156106ab576106aa610615565b5b6106b48261054c565b9050602081019050919050565b82818337600083830152505050565b60006106e36106de84610690565b610675565b9050828152602081018484840111156106ff576106fe610610565b5b61070a8482856106c1565b509392505050565b600082601f8301126107275761072661060b565b5b81356107378482602086016106d0565b91505092915050565b60008060006060848603121561075957610758610481565b5b6000610767868287016104ac565b9350506020610778868287016104ac565b925050604084013567ffffffffffffffff81111561079957610798610486565b5b6107a586828701610712565b9150509250925092565b7f4e487b7100000000000000000000000000000000000000000000000000000000600052602260045260246000fd5b600060028204905060018216806107f657607f821691505b602082108103610809576108086107af565b5b50919050565b7f4e487b7100000000000000000000000000000000000000000000000000000000600052601160045260246000fd5b60006108498261048b565b91507fffffffffffffffffffffffffffffffffffffffffffffffffffffffffffffffff820361087b5761087a61080f565b5b60018201905091905056fea2646970667358221220484808c814f25de15ecc51e9db6a3060e2585d9cc4cf021428b4970b377e0e4d64736f6c634300080d0033",
  "immutableReferences": {},
  "source": "pragma solidity >=0.5.0 <0.9.0;\r\n\r\nimport \"./SMERegistration.sol\";\r\nimport \"./FinanceRegistration.sol\";\r\n\r\ncontract BuySellTransaction {\r\n    SMERegistration public smeRegistration;\r\n    FinanceRegistration public financeRegistration; // Renamed from FinanceRegistration to financeRegistration\r\n\r\n    // Struct to represent a buy-sell transaction\r\n    struct Transaction {\r\n        uint transactionKey;\r\n        uint buyerBid;\r\n        uint sellerBid;\r\n        uint timestamp;\r\n        string termsAndConditions;\r\n    }\r\n\r\n    // Mapping to store transactions\r\n    mapping(uint => Transaction) public transactions;\r\n\r\n    // Counter for transactions\r\n    uint public transactionCount;\r\n\r\n    // Event to log transaction creation\r\n    event TransactionCreated(uint transactionKey, uint buyerBid, uint sellerBid, uint timestamp, string termsAndConditions);\r\n\r\n    constructor (SMERegistration _smeRegistration, FinanceRegistration _financeRegistration) public {\r\n        smeRegistration = _smeRegistration;\r\n        financeRegistration = _financeRegistration; // Changed from FinanceRegistration to financeRegistration\r\n    }\r\n\r\n    // Function to create a buy-sell transaction\r\n    function createTransaction(uint _buyerBid, uint _sellerBid, string memory _termsAndConditions) public {\r\n        // Increment transaction count to generate unique transaction key\r\n        transactionCount++;\r\n\r\n        // Get current timestamp\r\n        uint timestamp = block.timestamp;\r\n\r\n        // Store transaction details\r\n        transactions[transactionCount] = Transaction(transactionCount, _buyerBid, _sellerBid, timestamp, _termsAndConditions);\r\n\r\n        // Emit event\r\n        emit TransactionCreated(transactionCount, _buyerBid, _sellerBid, timestamp, _termsAndConditions);\r\n    }\r\n}\r\n",
  "sourcePath": "C:\\Users\\SaiDheerajPeketi\\WebstormProjects\\DiabolicTale\\Blockchain\\contracts\\BuySellTransaction.sol",
  "compiler": {
    "name": "solc",
    "version": "0.8.13+commit.abaa5c0e.Emscripten.clang"
  },
  "schemaVersion": "3.4.16",
  "updatedAt": "2024-04-20T21:22:06.319Z",
  "networkType": "ethereum",
  "devdoc": {
    "kind": "dev",
    "methods": {},
    "version": 1
  },
  "userdoc": {
    "kind": "user",
    "methods": {},
    "version": 1
  }
}