{
  "contractName": "financierPost",
  "abi": [
    {
      "inputs": [],
      "name": "financierPostCount",
      "outputs": [
        {
          "internalType": "uint256",
          "name": "",
          "type": "uint256"
        }
      ],
      "stateMutability": "view",
      "type": "function",
      "constant": true
    },
    {
      "inputs": [
        {
          "internalType": "uint256",
          "name": "",
          "type": "uint256"
        }
      ],
      "name": "financierPosts",
      "outputs": [
        {
          "internalType": "uint256",
          "name": "postID",
          "type": "uint256"
        },
        {
          "internalType": "string",
          "name": "bID",
          "type": "string"
        },
        {
          "internalType": "string",
          "name": "postContent",
          "type": "string"
        },
        {
          "internalType": "string",
          "name": "contact",
          "type": "string"
        },
        {
          "internalType": "string",
          "name": "filter",
          "type": "string"
        },
        {
          "internalType": "bool",
          "name": "isDeleted",
          "type": "bool"
        }
      ],
      "stateMutability": "view",
      "type": "function",
      "constant": true
    },
    {
      "inputs": [
        {
          "internalType": "string",
          "name": "_bid",
          "type": "string"
        },
        {
          "internalType": "string",
          "name": "_content",
          "type": "string"
        },
        {
          "internalType": "string",
          "name": "_contact",
          "type": "string"
        },
        {
          "internalType": "string",
          "name": "_filter",
          "type": "string"
        }
      ],
      "name": "createPost",
      "outputs": [],
      "stateMutability": "nonpayable",
      "type": "function"
    },
    {
      "inputs": [
        {
          "internalType": "uint256",
          "name": "_postid",
          "type": "uint256"
        },
        {
          "internalType": "string",
          "name": "_newcontent",
          "type": "string"
        },
        {
          "internalType": "string",
          "name": "_newcontact",
          "type": "string"
        }
      ],
      "name": "updatePost",
      "outputs": [],
      "stateMutability": "nonpayable",
      "type": "function"
    },
    {
      "inputs": [
        {
          "internalType": "uint256",
          "name": "_postid",
          "type": "uint256"
        }
      ],
      "name": "deletePost",
      "outputs": [],
      "stateMutability": "nonpayable",
      "type": "function"
    }
  ],
  "bytecode": "0x60806040526000805534801561001457600080fd5b50610e62806100246000396000f3fe608060405234801561001057600080fd5b50600436106100575760003560e01c8063094cd5ee1461005c5780630d57f91f146100785780633d0c110f146100945780634a5263f2146100b257806366d1cac9146100e7575b600080fd5b61007660048036038101906100719190610936565b610103565b005b610092600480360381019061008d9190610aa9565b610134565b005b61009c610238565b6040516100a99190610b8f565b60405180910390f35b6100cc60048036038101906100c79190610936565b61023e565b6040516100de96959493929190610c4d565b60405180910390f35b61010160048036038101906100fc9190610cca565b6104a7565b005b600180600083815260200190815260200160002060050160006101000a81548160ff02191690831515021790555050565b60008081548092919061014690610d84565b91905055506040518060c0016040528060005481526020018581526020018481526020018381526020018281526020016000151581525060016000805481526020019081526020016000206000820151816000015560208201518160010190805190602001906101b7929190610849565b5060408201518160020190805190602001906101d4929190610849565b5060608201518160030190805190602001906101f1929190610849565b50608082015181600401908051906020019061020e929190610849565b5060a08201518160050160006101000a81548160ff02191690831515021790555090505050505050565b60005481565b600160205280600052604060002060009150905080600001549080600101805461026790610dfb565b80601f016020809104026020016040519081016040528092919081815260200182805461029390610dfb565b80156102e05780601f106102b5576101008083540402835291602001916102e0565b820191906000526020600020905b8154815290600101906020018083116102c357829003601f168201915b5050505050908060020180546102f590610dfb565b80601f016020809104026020016040519081016040528092919081815260200182805461032190610dfb565b801561036e5780601f106103435761010080835404028352916020019161036e565b820191906000526020600020905b81548152906001019060200180831161035157829003601f168201915b50505050509080600301805461038390610dfb565b80601f01602080910402602001604051908101604052809291908181526020018280546103af90610dfb565b80156103fc5780601f106103d1576101008083540402835291602001916103fc565b820191906000526020600020905b8154815290600101906020018083116103df57829003601f168201915b50505050509080600401805461041190610dfb565b80601f016020809104026020016040519081016040528092919081815260200182805461043d90610dfb565b801561048a5780601f1061045f5761010080835404028352916020019161048a565b820191906000526020600020905b81548152906001019060200180831161046d57829003601f168201915b5050505050908060050160009054906101000a900460ff16905086565b6000600160008581526020019081526020016000206040518060c0016040529081600082015481526020016001820180546104e190610dfb565b80601f016020809104026020016040519081016040528092919081815260200182805461050d90610dfb565b801561055a5780601f1061052f5761010080835404028352916020019161055a565b820191906000526020600020905b81548152906001019060200180831161053d57829003601f168201915b5050505050815260200160028201805461057390610dfb565b80601f016020809104026020016040519081016040528092919081815260200182805461059f90610dfb565b80156105ec5780601f106105c1576101008083540402835291602001916105ec565b820191906000526020600020905b8154815290600101906020018083116105cf57829003601f168201915b5050505050815260200160038201805461060590610dfb565b80601f016020809104026020016040519081016040528092919081815260200182805461063190610dfb565b801561067e5780601f106106535761010080835404028352916020019161067e565b820191906000526020600020905b81548152906001019060200180831161066157829003601f168201915b5050505050815260200160048201805461069790610dfb565b80601f01602080910402602001604051908101604052809291908181526020018280546106c390610dfb565b80156107105780601f106106e557610100808354040283529160200191610710565b820191906000526020600020905b8154815290600101906020018083116106f357829003601f168201915b505050505081526020016005820160009054906101000a900460ff1615151515815250509050828160400181905250818160600181905250600180600086815260200190815260200160002060050160006101000a81548160ff02191690831515021790555060008081548092919061078890610d84565b91905055508060016000805481526020019081526020016000206000820151816000015560208201518160010190805190602001906107c8929190610849565b5060408201518160020190805190602001906107e5929190610849565b506060820151816003019080519060200190610802929190610849565b50608082015181600401908051906020019061081f929190610849565b5060a08201518160050160006101000a81548160ff02191690831515021790555090505050505050565b82805461085590610dfb565b90600052602060002090601f01602090048101928261087757600085556108be565b82601f1061089057805160ff19168380011785556108be565b828001600101855582156108be579182015b828111156108bd5782518255916020019190600101906108a2565b5b5090506108cb91906108cf565b5090565b5b808211156108e85760008160009055506001016108d0565b5090565b6000604051905090565b600080fd5b600080fd5b6000819050919050565b61091381610900565b811461091e57600080fd5b50565b6000813590506109308161090a565b92915050565b60006020828403121561094c5761094b6108f6565b5b600061095a84828501610921565b91505092915050565b600080fd5b600080fd5b6000601f19601f8301169050919050565b7f4e487b7100000000000000000000000000000000000000000000000000000000600052604160045260246000fd5b6109b68261096d565b810181811067ffffffffffffffff821117156109d5576109d461097e565b5b80604052505050565b60006109e86108ec565b90506109f482826109ad565b919050565b600067ffffffffffffffff821115610a1457610a1361097e565b5b610a1d8261096d565b9050602081019050919050565b82818337600083830152505050565b6000610a4c610a47846109f9565b6109de565b905082815260208101848484011115610a6857610a67610968565b5b610a73848285610a2a565b509392505050565b600082601f830112610a9057610a8f610963565b5b8135610aa0848260208601610a39565b91505092915050565b60008060008060808587031215610ac357610ac26108f6565b5b600085013567ffffffffffffffff811115610ae157610ae06108fb565b5b610aed87828801610a7b565b945050602085013567ffffffffffffffff811115610b0e57610b0d6108fb565b5b610b1a87828801610a7b565b935050604085013567ffffffffffffffff811115610b3b57610b3a6108fb565b5b610b4787828801610a7b565b925050606085013567ffffffffffffffff811115610b6857610b676108fb565b5b610b7487828801610a7b565b91505092959194509250565b610b8981610900565b82525050565b6000602082019050610ba46000830184610b80565b92915050565b600081519050919050565b600082825260208201905092915050565b60005b83811015610be4578082015181840152602081019050610bc9565b83811115610bf3576000848401525b50505050565b6000610c0482610baa565b610c0e8185610bb5565b9350610c1e818560208601610bc6565b610c278161096d565b840191505092915050565b60008115159050919050565b610c4781610c32565b82525050565b600060c082019050610c626000830189610b80565b8181036020830152610c748188610bf9565b90508181036040830152610c888187610bf9565b90508181036060830152610c9c8186610bf9565b90508181036080830152610cb08185610bf9565b9050610cbf60a0830184610c3e565b979650505050505050565b600080600060608486031215610ce357610ce26108f6565b5b6000610cf186828701610921565b935050602084013567ffffffffffffffff811115610d1257610d116108fb565b5b610d1e86828701610a7b565b925050604084013567ffffffffffffffff811115610d3f57610d3e6108fb565b5b610d4b86828701610a7b565b9150509250925092565b7f4e487b7100000000000000000000000000000000000000000000000000000000600052601160045260246000fd5b6000610d8f82610900565b91507fffffffffffffffffffffffffffffffffffffffffffffffffffffffffffffffff8203610dc157610dc0610d55565b5b600182019050919050565b7f4e487b7100000000000000000000000000000000000000000000000000000000600052602260045260246000fd5b60006002820490506001821680610e1357607f821691505b602082108103610e2657610e25610dcc565b5b5091905056fea264697066735822122060549b6f32f239e88b7bad8383e294576467be718c0d19d840be7e122fcfc3ce64736f6c634300080d0033",
  "immutableReferences": {},
  "source": "pragma solidity >=0.5.0 < 0.9.0;\r\n\r\ncontract financierPost {\r\n    uint public financierPostCount = 0;\r\n\r\n    struct Post {\r\n        uint postID;\r\n        string bID;\r\n        string postContent;\r\n        string contact;\r\n        string filter;\r\n        bool isDeleted;\r\n    }\r\n\r\n    mapping(uint => Post) public financierPosts;\r\n\r\n    function createPost(string memory _bid, string memory _content, string memory _contact, string memory _filter) public {\r\n        financierPostCount ++;\r\n        financierPosts[financierPostCount] = Post(financierPostCount, _bid, _content, _contact, _filter, false);\r\n    }\r\n\r\n    function updatePost(uint _postid, string memory _newcontent, string memory _newcontact) public {\r\n        Post memory currPost = financierPosts[_postid];\r\n        currPost.postContent = _newcontent;\r\n        currPost.contact = _newcontact;\r\n        financierPosts[_postid].isDeleted = true;\r\n        financierPostCount ++;\r\n        financierPosts[financierPostCount] = currPost;\r\n    }\r\n\r\n    function deletePost(uint _postid) public {\r\n        financierPosts[_postid].isDeleted = true;\r\n    }\r\n}",
  "sourcePath": "C:\\Users\\SaiDheerajPeketi\\WebstormProjects\\DiabolicTale\\Blockchain\\contracts\\financierPost.sol",
  "compiler": {
    "name": "solc",
    "version": "0.8.13+commit.abaa5c0e.Emscripten.clang"
  },
  "schemaVersion": "3.4.16",
  "updatedAt": "2024-04-20T09:08:28.290Z",
  "networkType": "ethereum",
  "devdoc": {
    "kind": "dev",
    "methods": {},
    "version": 1
  },
  "userdoc": {
    "kind": "user",
    "methods": {},
    "version": 1
  }
}