{
  "contractName": "FinanceRegistration",
  "abi": [
    {
      "anonymous": false,
      "inputs": [
        {
          "indexed": false,
          "internalType": "string",
          "name": "businessID",
          "type": "string"
        },
        {
          "indexed": false,
          "internalType": "address",
          "name": "smeAddress",
          "type": "address"
        }
      ],
      "name": "SMERegistered",
      "type": "event"
    },
    {
      "inputs": [
        {
          "internalType": "bytes32",
          "name": "",
          "type": "bytes32"
        }
      ],
      "name": "smeRegistry",
      "outputs": [
        {
          "internalType": "string",
          "name": "businessID",
          "type": "string"
        },
        {
          "internalType": "string",
          "name": "companyName",
          "type": "string"
        },
        {
          "internalType": "string",
          "name": "contactDetails",
          "type": "string"
        },
        {
          "internalType": "address",
          "name": "smeAddress",
          "type": "address"
        }
      ],
      "stateMutability": "view",
      "type": "function",
      "constant": true
    },
    {
      "inputs": [
        {
          "internalType": "string",
          "name": "_businessID",
          "type": "string"
        },
        {
          "internalType": "string",
          "name": "_companyName",
          "type": "string"
        },
        {
          "internalType": "string",
          "name": "_contactDetails",
          "type": "string"
        }
      ],
      "name": "registerSME",
      "outputs": [],
      "stateMutability": "nonpayable",
      "type": "function"
    },
    {
      "inputs": [
        {
          "internalType": "string",
          "name": "_businessID",
          "type": "string"
        }
      ],
      "name": "getSMEData",
      "outputs": [
        {
          "internalType": "string",
          "name": "",
          "type": "string"
        },
        {
          "internalType": "string",
          "name": "",
          "type": "string"
        },
        {
          "internalType": "string",
          "name": "",
          "type": "string"
        },
        {
          "internalType": "address",
          "name": "",
          "type": "address"
        }
      ],
      "stateMutability": "view",
      "type": "function",
      "constant": true
    },
    {
      "inputs": [
        {
          "internalType": "string",
          "name": "_businessID",
          "type": "string"
        }
      ],
      "name": "getSMEPrivateKey",
      "outputs": [
        {
          "internalType": "bytes",
          "name": "",
          "type": "bytes"
        }
      ],
      "stateMutability": "view",
      "type": "function",
      "constant": true
    }
  ],
  "bytecode": "0x608060405234801561001057600080fd5b50610f95806100206000396000f3fe608060405234801561001057600080fd5b506004361061004c5760003560e01c80636422fa1b14610051578063ad835e4a1461006d578063d5f077f91461009d578063f79c8d65146100d0575b600080fd5b61006b600480360381019061006691906109ff565b610103565b005b61008760048036038101906100829190610aa6565b61030d565b6040516100949190610b77565b60405180910390f35b6100b760048036038101906100b29190610aa6565b610374565b6040516100c79493929190610c2f565b60405180910390f35b6100ea60048036038101906100e59190610cbf565b61061a565b6040516100fa9493929190610c2f565b60405180910390f35b6000835111610147576040517f08c379a000000000000000000000000000000000000000000000000000000000815260040161013e90610d38565b60405180910390fd5b600073ffffffffffffffffffffffffffffffffffffffff166000808580519060200120815260200190815260200160002060030160009054906101000a900473ffffffffffffffffffffffffffffffffffffffff1673ffffffffffffffffffffffffffffffffffffffff16146101f2576040517f08c379a00000000000000000000000000000000000000000000000000000000081526004016101e990610da4565b60405180910390fd5b60004233604051602001610207929190610e37565b6040516020818303038152906040528051906020012060001c9050600080600086805190602001208152602001908152602001600020905084816000019080519060200190610257929190610802565b5083816001019080519060200190610270929190610802565b5082816002019080519060200190610289929190610802565b50818160030160006101000a81548173ffffffffffffffffffffffffffffffffffffffff021916908373ffffffffffffffffffffffffffffffffffffffff1602179055507f5fa271b86a3676b63a9d7a3d6b515d0ab2a4e89164eb06a0a92d759bd8e6c70385836040516102fe929190610e63565b60405180910390a15050505050565b6060426000808480519060200120815260200190815260200160002060030160009054906101000a900473ffffffffffffffffffffffffffffffffffffffff1660405160200161035e929190610e37565b6040516020818303038152906040529050919050565b6060806060600080600080878051906020012081526020019081526020016000206040518060800160405290816000820180546103b090610ec2565b80601f01602080910402602001604051908101604052809291908181526020018280546103dc90610ec2565b80156104295780601f106103fe57610100808354040283529160200191610429565b820191906000526020600020905b81548152906001019060200180831161040c57829003601f168201915b5050505050815260200160018201805461044290610ec2565b80601f016020809104026020016040519081016040528092919081815260200182805461046e90610ec2565b80156104bb5780601f10610490576101008083540402835291602001916104bb565b820191906000526020600020905b81548152906001019060200180831161049e57829003601f168201915b505050505081526020016002820180546104d490610ec2565b80601f016020809104026020016040519081016040528092919081815260200182805461050090610ec2565b801561054d5780601f106105225761010080835404028352916020019161054d565b820191906000526020600020905b81548152906001019060200180831161053057829003601f168201915b505050505081526020016003820160009054906101000a900473ffffffffffffffffffffffffffffffffffffffff1673ffffffffffffffffffffffffffffffffffffffff1673ffffffffffffffffffffffffffffffffffffffff168152505090506000816000015151116105f6576040517f08c379a00000000000000000000000000000000000000000000000000000000081526004016105ed90610f3f565b60405180910390fd5b80600001518160200151826040015183606001519450945094509450509193509193565b600060205280600052604060002060009150905080600001805461063d90610ec2565b80601f016020809104026020016040519081016040528092919081815260200182805461066990610ec2565b80156106b65780601f1061068b576101008083540402835291602001916106b6565b820191906000526020600020905b81548152906001019060200180831161069957829003601f168201915b5050505050908060010180546106cb90610ec2565b80601f01602080910402602001604051908101604052809291908181526020018280546106f790610ec2565b80156107445780601f1061071957610100808354040283529160200191610744565b820191906000526020600020905b81548152906001019060200180831161072757829003601f168201915b50505050509080600201805461075990610ec2565b80601f016020809104026020016040519081016040528092919081815260200182805461078590610ec2565b80156107d25780601f106107a7576101008083540402835291602001916107d2565b820191906000526020600020905b8154815290600101906020018083116107b557829003601f168201915b5050505050908060030160009054906101000a900473ffffffffffffffffffffffffffffffffffffffff16905084565b82805461080e90610ec2565b90600052602060002090601f0160209004810192826108305760008555610877565b82601f1061084957805160ff1916838001178555610877565b82800160010185558215610877579182015b8281111561087657825182559160200191906001019061085b565b5b5090506108849190610888565b5090565b5b808211156108a1576000816000905550600101610889565b5090565b6000604051905090565b600080fd5b600080fd5b600080fd5b600080fd5b6000601f19601f8301169050919050565b7f4e487b7100000000000000000000000000000000000000000000000000000000600052604160045260246000fd5b61090c826108c3565b810181811067ffffffffffffffff8211171561092b5761092a6108d4565b5b80604052505050565b600061093e6108a5565b905061094a8282610903565b919050565b600067ffffffffffffffff82111561096a576109696108d4565b5b610973826108c3565b9050602081019050919050565b82818337600083830152505050565b60006109a261099d8461094f565b610934565b9050828152602081018484840111156109be576109bd6108be565b5b6109c9848285610980565b509392505050565b600082601f8301126109e6576109e56108b9565b5b81356109f684826020860161098f565b91505092915050565b600080600060608486031215610a1857610a176108af565b5b600084013567ffffffffffffffff811115610a3657610a356108b4565b5b610a42868287016109d1565b935050602084013567ffffffffffffffff811115610a6357610a626108b4565b5b610a6f868287016109d1565b925050604084013567ffffffffffffffff811115610a9057610a8f6108b4565b5b610a9c868287016109d1565b9150509250925092565b600060208284031215610abc57610abb6108af565b5b600082013567ffffffffffffffff811115610ada57610ad96108b4565b5b610ae6848285016109d1565b91505092915050565b600081519050919050565b600082825260208201905092915050565b60005b83811015610b29578082015181840152602081019050610b0e565b83811115610b38576000848401525b50505050565b6000610b4982610aef565b610b538185610afa565b9350610b63818560208601610b0b565b610b6c816108c3565b840191505092915050565b60006020820190508181036000830152610b918184610b3e565b905092915050565b600081519050919050565b600082825260208201905092915050565b6000610bc082610b99565b610bca8185610ba4565b9350610bda818560208601610b0b565b610be3816108c3565b840191505092915050565b600073ffffffffffffffffffffffffffffffffffffffff82169050919050565b6000610c1982610bee565b9050919050565b610c2981610c0e565b82525050565b60006080820190508181036000830152610c498187610bb5565b90508181036020830152610c5d8186610bb5565b90508181036040830152610c718185610bb5565b9050610c806060830184610c20565b95945050505050565b6000819050919050565b610c9c81610c89565b8114610ca757600080fd5b50565b600081359050610cb981610c93565b92915050565b600060208284031215610cd557610cd46108af565b5b6000610ce384828501610caa565b91505092915050565b7f427573696e657373204944206d757374206e6f7420626520656d707479000000600082015250565b6000610d22601d83610ba4565b9150610d2d82610cec565b602082019050919050565b60006020820190508181036000830152610d5181610d15565b9050919050565b7f534d4520616c7265616479207265676973746572656400000000000000000000600082015250565b6000610d8e601683610ba4565b9150610d9982610d58565b602082019050919050565b60006020820190508181036000830152610dbd81610d81565b9050919050565b6000819050919050565b6000819050919050565b610de9610de482610dc4565b610dce565b82525050565b60008160601b9050919050565b6000610e0782610def565b9050919050565b6000610e1982610dfc565b9050919050565b610e31610e2c82610c0e565b610e0e565b82525050565b6000610e438285610dd8565b602082019150610e538284610e20565b6014820191508190509392505050565b60006040820190508181036000830152610e7d8185610bb5565b9050610e8c6020830184610c20565b9392505050565b7f4e487b7100000000000000000000000000000000000000000000000000000000600052602260045260246000fd5b60006002820490506001821680610eda57607f821691505b602082108103610eed57610eec610e93565b5b50919050565b7f534d45206e6f7420666f756e6400000000000000000000000000000000000000600082015250565b6000610f29600d83610ba4565b9150610f3482610ef3565b602082019050919050565b60006020820190508181036000830152610f5881610f1c565b905091905056fea2646970667358221220fd0064031f7fdb885120231cab56970de7a678038bfee5045893d572f7dd1e3264736f6c634300080d0033",
  "immutableReferences": {},
  "source": "pragma solidity >=0.5.0 <0.9.0;\r\n\r\ncontract FinanceRegistration {\r\n    // Struct to represent an SME\r\n    struct SME {\r\n        string businessID;\r\n        string companyName;\r\n        string contactDetails;\r\n        address smeAddress;\r\n    }\r\n\r\n    // Mapping to store SMEs\r\n    mapping(bytes32 => SME) public smeRegistry;\r\n\r\n    // Event to log SME registration\r\n    event SMERegistered(string businessID, address smeAddress);\r\n\r\n    // Function to register a new SME\r\n    function registerSME(string memory _businessID, string memory _companyName, string memory _contactDetails) public {\r\n        require(bytes(_businessID).length > 0, \"Business ID must not be empty\");\r\n        require(smeRegistry[keccak256(bytes(_businessID))].smeAddress == address(0), \"SME already registered\");\r\n\r\n        // Generate a new a\r\n        \r\n        // account for the SME\r\n        address smeAddress = address(uint160(uint(keccak256(abi.encodePacked(block.timestamp, msg.sender))))); // Pseudo-random generation of address\r\n        // bytes memory privateKey = abi.encodePacked(block.timestamp, msg.sender);\r\n\r\n        \r\n        // Create a new SME\r\n        SME storage newSME = smeRegistry[keccak256(bytes(_businessID))];\r\n        newSME.businessID = _businessID;\r\n        newSME.companyName = _companyName;\r\n        newSME.contactDetails = _contactDetails;\r\n        newSME.smeAddress = smeAddress;\r\n\r\n        // Emit event\r\n        emit SMERegistered(_businessID, smeAddress);\r\n    }\r\n\r\n    // Function to retrieve SME data using BusinessID\r\n    function getSMEData(string memory _businessID) public view returns (string memory, string memory, string memory, address) {\r\n        SME memory sme = smeRegistry[keccak256(bytes(_businessID))];\r\n        require(bytes(sme.businessID).length > 0, \"SME not found\");\r\n        return (sme.businessID, sme.companyName, sme.contactDetails, sme.smeAddress);\r\n    }\r\n\r\n    // Function to get the private key of an SME\r\n    function getSMEPrivateKey(string memory _businessID) public view returns (bytes memory) {\r\n        return abi.encodePacked(block.timestamp, smeRegistry[keccak256(bytes(_businessID))].smeAddress);\r\n    }\r\n}\r\n",
  "sourcePath": "C:\\Users\\SaiDheerajPeketi\\WebstormProjects\\DiabolicTale\\Blockchain\\contracts\\FinanceRegistration.sol",
  "compiler": {
    "name": "solc",
    "version": "0.8.13+commit.abaa5c0e.Emscripten.clang"
  },
  "schemaVersion": "3.4.16",
  "updatedAt": "2024-04-20T21:22:06.313Z",
  "networkType": "ethereum",
  "devdoc": {
    "kind": "dev",
    "methods": {},
    "version": 1
  },
  "userdoc": {
    "kind": "user",
    "methods": {},
    "version": 1
  }
}