{
  "contractName": "financierPost",
  "abi": [
    {
      "inputs": [],
      "name": "financierPostCount",
      "outputs": [
        {
          "internalType": "uint256",
          "name": "",
          "type": "uint256"
        }
      ],
      "stateMutability": "view",
      "type": "function",
      "constant": true
    },
    {
      "inputs": [
        {
          "internalType": "uint256",
          "name": "",
          "type": "uint256"
        }
      ],
      "name": "financierPosts",
      "outputs": [
        {
          "internalType": "uint256",
          "name": "postID",
          "type": "uint256"
        },
        {
          "internalType": "string",
          "name": "bID",
          "type": "string"
        },
        {
          "internalType": "string",
          "name": "postContent",
          "type": "string"
        },
        {
          "internalType": "string",
          "name": "contact",
          "type": "string"
        }
      ],
      "stateMutability": "view",
      "type": "function",
      "constant": true
    },
    {
      "inputs": [
        {
          "internalType": "string",
          "name": "_bid",
          "type": "string"
        },
        {
          "internalType": "string",
          "name": "_content",
          "type": "string"
        },
        {
          "internalType": "string",
          "name": "_contact",
          "type": "string"
        }
      ],
      "name": "createPost",
      "outputs": [],
      "stateMutability": "nonpayable",
      "type": "function"
    },
    {
      "inputs": [
        {
          "internalType": "uint256",
          "name": "_postID",
          "type": "uint256"
        }
      ],
      "name": "readPost",
      "outputs": [
        {
          "internalType": "uint256",
          "name": "",
          "type": "uint256"
        },
        {
          "internalType": "string",
          "name": "",
          "type": "string"
        },
        {
          "internalType": "string",
          "name": "",
          "type": "string"
        },
        {
          "internalType": "string",
          "name": "",
          "type": "string"
        }
      ],
      "stateMutability": "view",
      "type": "function",
      "constant": true
    }
  ],
  "bytecode": "0x60806040526000805534801561001457600080fd5b50610b60806100246000396000f3fe608060405234801561001057600080fd5b506004361061004c5760003560e01c80633d0c110f146100515780634a5263f21461006f578063ca6f69f5146100a2578063e8a4a1eb146100d5575b600080fd5b6100596100f1565b6040516100669190610690565b60405180910390f35b610089600480360381019061008491906106eb565b6100f7565b60405161009994939291906107b1565b60405180910390f35b6100bc60048036038101906100b791906106eb565b6102bf565b6040516100cc94939291906107b1565b60405180910390f35b6100ef60048036038101906100ea9190610940565b61051d565b005b60005481565b600160205280600052604060002060009150905080600001549080600101805461012090610a16565b80601f016020809104026020016040519081016040528092919081815260200182805461014c90610a16565b80156101995780601f1061016e57610100808354040283529160200191610199565b820191906000526020600020905b81548152906001019060200180831161017c57829003601f168201915b5050505050908060020180546101ae90610a16565b80601f01602080910402602001604051908101604052809291908181526020018280546101da90610a16565b80156102275780601f106101fc57610100808354040283529160200191610227565b820191906000526020600020905b81548152906001019060200180831161020a57829003601f168201915b50505050509080600301805461023c90610a16565b80601f016020809104026020016040519081016040528092919081815260200182805461026890610a16565b80156102b55780601f1061028a576101008083540402835291602001916102b5565b820191906000526020600020905b81548152906001019060200180831161029857829003601f168201915b5050505050905084565b600060608060606000851180156102d857506000548511155b610317576040517f08c379a000000000000000000000000000000000000000000000000000000000815260040161030e90610a93565b60405180910390fd5b6000600160008781526020019081526020016000206040518060800160405290816000820154815260200160018201805461035190610a16565b80601f016020809104026020016040519081016040528092919081815260200182805461037d90610a16565b80156103ca5780601f1061039f576101008083540402835291602001916103ca565b820191906000526020600020905b8154815290600101906020018083116103ad57829003601f168201915b505050505081526020016002820180546103e390610a16565b80601f016020809104026020016040519081016040528092919081815260200182805461040f90610a16565b801561045c5780601f106104315761010080835404028352916020019161045c565b820191906000526020600020905b81548152906001019060200180831161043f57829003601f168201915b5050505050815260200160038201805461047590610a16565b80601f01602080910402602001604051908101604052809291908181526020018280546104a190610a16565b80156104ee5780601f106104c3576101008083540402835291602001916104ee565b820191906000526020600020905b8154815290600101906020018083116104d157829003601f168201915b505050505081525050905080600001518160200151826040015183606001519450945094509450509193509193565b60008081548092919061052f90610ae2565b9190505550604051806080016040528060005481526020018481526020018381526020018281525060016000805481526020019081526020016000206000820151816000015560208201518160010190805190602001906105919291906105d4565b5060408201518160020190805190602001906105ae9291906105d4565b5060608201518160030190805190602001906105cb9291906105d4565b50905050505050565b8280546105e090610a16565b90600052602060002090601f0160209004810192826106025760008555610649565b82601f1061061b57805160ff1916838001178555610649565b82800160010185558215610649579182015b8281111561064857825182559160200191906001019061062d565b5b509050610656919061065a565b5090565b5b8082111561067357600081600090555060010161065b565b5090565b6000819050919050565b61068a81610677565b82525050565b60006020820190506106a56000830184610681565b92915050565b6000604051905090565b600080fd5b600080fd5b6106c881610677565b81146106d357600080fd5b50565b6000813590506106e5816106bf565b92915050565b600060208284031215610701576107006106b5565b5b600061070f848285016106d6565b91505092915050565b600081519050919050565b600082825260208201905092915050565b60005b83811015610752578082015181840152602081019050610737565b83811115610761576000848401525b50505050565b6000601f19601f8301169050919050565b600061078382610718565b61078d8185610723565b935061079d818560208601610734565b6107a681610767565b840191505092915050565b60006080820190506107c66000830187610681565b81810360208301526107d88186610778565b905081810360408301526107ec8185610778565b905081810360608301526108008184610778565b905095945050505050565b600080fd5b600080fd5b7f4e487b7100000000000000000000000000000000000000000000000000000000600052604160045260246000fd5b61084d82610767565b810181811067ffffffffffffffff8211171561086c5761086b610815565b5b80604052505050565b600061087f6106ab565b905061088b8282610844565b919050565b600067ffffffffffffffff8211156108ab576108aa610815565b5b6108b482610767565b9050602081019050919050565b82818337600083830152505050565b60006108e36108de84610890565b610875565b9050828152602081018484840111156108ff576108fe610810565b5b61090a8482856108c1565b509392505050565b600082601f8301126109275761092661080b565b5b81356109378482602086016108d0565b91505092915050565b600080600060608486031215610959576109586106b5565b5b600084013567ffffffffffffffff811115610977576109766106ba565b5b61098386828701610912565b935050602084013567ffffffffffffffff8111156109a4576109a36106ba565b5b6109b086828701610912565b925050604084013567ffffffffffffffff8111156109d1576109d06106ba565b5b6109dd86828701610912565b9150509250925092565b7f4e487b7100000000000000000000000000000000000000000000000000000000600052602260045260246000fd5b60006002820490506001821680610a2e57607f821691505b602082108103610a4157610a406109e7565b5b50919050565b7f496e76616c696420706f73742049440000000000000000000000000000000000600082015250565b6000610a7d600f83610723565b9150610a8882610a47565b602082019050919050565b60006020820190508181036000830152610aac81610a70565b9050919050565b7f4e487b7100000000000000000000000000000000000000000000000000000000600052601160045260246000fd5b6000610aed82610677565b91507fffffffffffffffffffffffffffffffffffffffffffffffffffffffffffffffff8203610b1f57610b1e610ab3565b5b60018201905091905056fea2646970667358221220d53d9ffec046bdb199955efa71acc69823784836895187c26790d96cbaf58d3364736f6c634300080d0033",
  "immutableReferences": {},
  "source": "pragma solidity >=0.5.0 < 0.9.0;\r\n\r\ncontract financierPost {\r\n    uint public financierPostCount = 0;\r\n\r\n    struct Post {\r\n        uint postID;\r\n        string bID;\r\n        string postContent;\r\n        string contact;\r\n    }\r\n\r\n    mapping(uint => Post) public financierPosts;\r\n\r\n    function createPost(string memory _bid, string memory _content, string memory _contact) public {\r\n        financierPostCount ++;\r\n        financierPosts[financierPostCount] = Post(financierPostCount, _bid, _content, _contact);\r\n    }\r\n\r\n    function readPost(uint _postID) public view returns (uint, string memory, string memory, string memory) {\r\n        require(_postID > 0 && _postID <= financierPostCount, \"Invalid post ID\");\r\n        \r\n        Post memory post = financierPosts[_postID];\r\n        return (post.postID, post.bID, post.postContent, post.contact);\r\n    }\r\n\r\n    // function updatePost(uint _postid, string memory _newcontent, string memory _newcontact) public {\r\n    //     Post memory currPost = financierPosts[_postid];\r\n    //     currPost.postContent = _newcontent;\r\n    //     currPost.contact = _newcontact;\r\n    //     financierPosts[_postid].isDeleted = true;\r\n    //     financierPostCount ++;\r\n    //     financierPosts[financierPostCount] = currPost;\r\n    // }\r\n\r\n    // function deletePost(uint _postid) public {\r\n    //     financierPosts[_postid].isDeleted = true;\r\n    // }\r\n}",
  "sourcePath": "C:\\Users\\SaiDheerajPeketi\\WebstormProjects\\DiabolicTale\\Blockchain\\contracts\\financierPost.sol",
  "compiler": {
    "name": "solc",
    "version": "0.8.13+commit.abaa5c0e.Emscripten.clang"
  },
  "schemaVersion": "3.4.16",
  "updatedAt": "2024-04-20T13:57:34.249Z",
  "networkType": "ethereum",
  "devdoc": {
    "kind": "dev",
    "methods": {},
    "version": 1
  },
  "userdoc": {
    "kind": "user",
    "methods": {},
    "version": 1
  }
}