{
  "contractName": "Signup",
  "abi": [
    {
      "anonymous": false,
      "inputs": [
        {
          "indexed": false,
          "internalType": "string",
          "name": "username",
          "type": "string"
        },
        {
          "indexed": false,
          "internalType": "address",
          "name": "userAddress",
          "type": "address"
        },
        {
          "indexed": false,
          "internalType": "address",
          "name": "walletAddress",
          "type": "address"
        }
      ],
      "name": "UserRegistered",
      "type": "event"
    },
    {
      "inputs": [
        {
          "internalType": "bytes32",
          "name": "",
          "type": "bytes32"
        }
      ],
      "name": "userRegistry",
      "outputs": [
        {
          "internalType": "string",
          "name": "username",
          "type": "string"
        },
        {
          "internalType": "string",
          "name": "email",
          "type": "string"
        },
        {
          "internalType": "string",
          "name": "password",
          "type": "string"
        },
        {
          "internalType": "address",
          "name": "userAddress",
          "type": "address"
        },
        {
          "internalType": "address",
          "name": "walletAddress",
          "type": "address"
        }
      ],
      "stateMutability": "view",
      "type": "function"
    },
    {
      "inputs": [
        {
          "internalType": "string",
          "name": "_username",
          "type": "string"
        },
        {
          "internalType": "string",
          "name": "_email",
          "type": "string"
        },
        {
          "internalType": "string",
          "name": "_password",
          "type": "string"
        },
        {
          "internalType": "address",
          "name": "_walletAddress",
          "type": "address"
        }
      ],
      "name": "registerUser",
      "outputs": [],
      "stateMutability": "nonpayable",
      "type": "function"
    },
    {
      "inputs": [
        {
          "internalType": "string",
          "name": "_email",
          "type": "string"
        }
      ],
      "name": "getUserData",
      "outputs": [
        {
          "internalType": "string",
          "name": "",
          "type": "string"
        },
        {
          "internalType": "string",
          "name": "",
          "type": "string"
        },
        {
          "internalType": "address",
          "name": "",
          "type": "address"
        },
        {
          "internalType": "address",
          "name": "",
          "type": "address"
        }
      ],
      "stateMutability": "view",
      "type": "function"
    }
  ],
  "bytecode": "0x608060405234801561001057600080fd5b50611229806100206000396000f3fe608060405234801561001057600080fd5b50600436106100415760003560e01c806342b5b43d1461004657806354ab24031461007a578063fd3c9952146100ad575b600080fd5b610060600480360381019061005b9190610a07565b6100c9565b604051610071959493929190610b0e565b60405180910390f35b610094600480360381019061008f9190610cab565b6102d7565b6040516100a49493929190610cf4565b60405180910390f35b6100c760048036038101906100c29190610d73565b6105d3565b005b60006020528060005260406000206000915090508060000180546100ec90610e5d565b80601f016020809104026020016040519081016040528092919081815260200182805461011890610e5d565b80156101655780601f1061013a57610100808354040283529160200191610165565b820191906000526020600020905b81548152906001019060200180831161014857829003601f168201915b50505050509080600101805461017a90610e5d565b80601f01602080910402602001604051908101604052809291908181526020018280546101a690610e5d565b80156101f35780601f106101c8576101008083540402835291602001916101f3565b820191906000526020600020905b8154815290600101906020018083116101d657829003601f168201915b50505050509080600201805461020890610e5d565b80601f016020809104026020016040519081016040528092919081815260200182805461023490610e5d565b80156102815780601f1061025657610100808354040283529160200191610281565b820191906000526020600020905b81548152906001019060200180831161026457829003601f168201915b5050505050908060030160009054906101000a900473ffffffffffffffffffffffffffffffffffffffff16908060040160009054906101000a900473ffffffffffffffffffffffffffffffffffffffff16905085565b6060806000806000806000878051906020012081526020019081526020016000206040518060a001604052908160008201805461031390610e5d565b80601f016020809104026020016040519081016040528092919081815260200182805461033f90610e5d565b801561038c5780601f106103615761010080835404028352916020019161038c565b820191906000526020600020905b81548152906001019060200180831161036f57829003601f168201915b505050505081526020016001820180546103a590610e5d565b80601f01602080910402602001604051908101604052809291908181526020018280546103d190610e5d565b801561041e5780601f106103f35761010080835404028352916020019161041e565b820191906000526020600020905b81548152906001019060200180831161040157829003601f168201915b5050505050815260200160028201805461043790610e5d565b80601f016020809104026020016040519081016040528092919081815260200182805461046390610e5d565b80156104b05780601f10610485576101008083540402835291602001916104b0565b820191906000526020600020905b81548152906001019060200180831161049357829003601f168201915b505050505081526020016003820160009054906101000a900473ffffffffffffffffffffffffffffffffffffffff1673ffffffffffffffffffffffffffffffffffffffff1673ffffffffffffffffffffffffffffffffffffffff1681526020016004820160009054906101000a900473ffffffffffffffffffffffffffffffffffffffff1673ffffffffffffffffffffffffffffffffffffffff1673ffffffffffffffffffffffffffffffffffffffff168152505090506000816000015151116105af576040517f08c379a00000000000000000000000000000000000000000000000000000000081526004016105a690610eda565b60405180910390fd5b80600001518160200151826060015183608001519450945094509450509193509193565b6000845111610617576040517f08c379a000000000000000000000000000000000000000000000000000000000815260040161060e90610f46565b60405180910390fd5b600083511161065b576040517f08c379a000000000000000000000000000000000000000000000000000000000815260040161065290610fb2565b60405180910390fd5b600082511161069f576040517f08c379a00000000000000000000000000000000000000000000000000000000081526004016106969061101e565b60405180910390fd5b600073ffffffffffffffffffffffffffffffffffffffff168173ffffffffffffffffffffffffffffffffffffffff160361070e576040517f08c379a00000000000000000000000000000000000000000000000000000000081526004016107059061108a565b60405180910390fd5b600073ffffffffffffffffffffffffffffffffffffffff166000808580519060200120815260200190815260200160002060030160009054906101000a900473ffffffffffffffffffffffffffffffffffffffff1673ffffffffffffffffffffffffffffffffffffffff16146107b9576040517f08c379a00000000000000000000000000000000000000000000000000000000081526004016107b0906110f6565b60405180910390fd5b600042336040516020016107ce929190611189565b6040516020818303038152906040528051906020012060001c905060008060008680519060200120815260200190815260200160002090508581600001908051906020019061081e92919061091a565b508481600101908051906020019061083792919061091a565b508381600201908051906020019061085092919061091a565b50818160030160006101000a81548173ffffffffffffffffffffffffffffffffffffffff021916908373ffffffffffffffffffffffffffffffffffffffff160217905550828160040160006101000a81548173ffffffffffffffffffffffffffffffffffffffff021916908373ffffffffffffffffffffffffffffffffffffffff1602179055507f771be67cbbefa9c447028384ee1423932e12da5d065b8e428d7cfbc87973fd5286838560405161090a939291906111b5565b60405180910390a1505050505050565b82805461092690610e5d565b90600052602060002090601f016020900481019282610948576000855561098f565b82601f1061096157805160ff191683800117855561098f565b8280016001018555821561098f579182015b8281111561098e578251825591602001919060010190610973565b5b50905061099c91906109a0565b5090565b5b808211156109b95760008160009055506001016109a1565b5090565b6000604051905090565b600080fd5b600080fd5b6000819050919050565b6109e4816109d1565b81146109ef57600080fd5b50565b600081359050610a01816109db565b92915050565b600060208284031215610a1d57610a1c6109c7565b5b6000610a2b848285016109f2565b91505092915050565b600081519050919050565b600082825260208201905092915050565b60005b83811015610a6e578082015181840152602081019050610a53565b83811115610a7d576000848401525b50505050565b6000601f19601f8301169050919050565b6000610a9f82610a34565b610aa98185610a3f565b9350610ab9818560208601610a50565b610ac281610a83565b840191505092915050565b600073ffffffffffffffffffffffffffffffffffffffff82169050919050565b6000610af882610acd565b9050919050565b610b0881610aed565b82525050565b600060a0820190508181036000830152610b288188610a94565b90508181036020830152610b3c8187610a94565b90508181036040830152610b508186610a94565b9050610b5f6060830185610aff565b610b6c6080830184610aff565b9695505050505050565b600080fd5b600080fd5b7f4e487b7100000000000000000000000000000000000000000000000000000000600052604160045260246000fd5b610bb882610a83565b810181811067ffffffffffffffff82111715610bd757610bd6610b80565b5b80604052505050565b6000610bea6109bd565b9050610bf68282610baf565b919050565b600067ffffffffffffffff821115610c1657610c15610b80565b5b610c1f82610a83565b9050602081019050919050565b82818337600083830152505050565b6000610c4e610c4984610bfb565b610be0565b905082815260208101848484011115610c6a57610c69610b7b565b5b610c75848285610c2c565b509392505050565b600082601f830112610c9257610c91610b76565b5b8135610ca2848260208601610c3b565b91505092915050565b600060208284031215610cc157610cc06109c7565b5b600082013567ffffffffffffffff811115610cdf57610cde6109cc565b5b610ceb84828501610c7d565b91505092915050565b60006080820190508181036000830152610d0e8187610a94565b90508181036020830152610d228186610a94565b9050610d316040830185610aff565b610d3e6060830184610aff565b95945050505050565b610d5081610aed565b8114610d5b57600080fd5b50565b600081359050610d6d81610d47565b92915050565b60008060008060808587031215610d8d57610d8c6109c7565b5b600085013567ffffffffffffffff811115610dab57610daa6109cc565b5b610db787828801610c7d565b945050602085013567ffffffffffffffff811115610dd857610dd76109cc565b5b610de487828801610c7d565b935050604085013567ffffffffffffffff811115610e0557610e046109cc565b5b610e1187828801610c7d565b9250506060610e2287828801610d5e565b91505092959194509250565b7f4e487b7100000000000000000000000000000000000000000000000000000000600052602260045260246000fd5b60006002820490506001821680610e7557607f821691505b602082108103610e8857610e87610e2e565b5b50919050565b7f55736572206e6f7420666f756e64000000000000000000000000000000000000600082015250565b6000610ec4600e83610a3f565b9150610ecf82610e8e565b602082019050919050565b60006020820190508181036000830152610ef381610eb7565b9050919050565b7f557365726e616d65206d757374206e6f7420626520656d707479000000000000600082015250565b6000610f30601a83610a3f565b9150610f3b82610efa565b602082019050919050565b60006020820190508181036000830152610f5f81610f23565b9050919050565b7f456d61696c206d757374206e6f7420626520656d707479000000000000000000600082015250565b6000610f9c601783610a3f565b9150610fa782610f66565b602082019050919050565b60006020820190508181036000830152610fcb81610f8f565b9050919050565b7f50617373776f7264206d757374206e6f7420626520656d707479000000000000600082015250565b6000611008601a83610a3f565b915061101382610fd2565b602082019050919050565b6000602082019050818103600083015261103781610ffb565b9050919050565b7f57616c6c65742061646472657373206d7573742062652076616c696400000000600082015250565b6000611074601c83610a3f565b915061107f8261103e565b602082019050919050565b600060208201905081810360008301526110a381611067565b9050919050565b7f5573657220616c72656164792072656769737465726564000000000000000000600082015250565b60006110e0601783610a3f565b91506110eb826110aa565b602082019050919050565b6000602082019050818103600083015261110f816110d3565b9050919050565b6000819050919050565b6000819050919050565b61113b61113682611116565b611120565b82525050565b60008160601b9050919050565b600061115982611141565b9050919050565b600061116b8261114e565b9050919050565b61118361117e82610aed565b611160565b82525050565b6000611195828561112a565b6020820191506111a58284611172565b6014820191508190509392505050565b600060608201905081810360008301526111cf8186610a94565b90506111de6020830185610aff565b6111eb6040830184610aff565b94935050505056fea26469706673582212200027612d9436b24f9e1f7ce7db276f04712064a8c2980d861df8b0d8808ed73a64736f6c634300080d0033",
  "immutableReferences": {},
  "source": "pragma solidity >=0.5.0 <0.9.0;\r\n\r\ncontract Signup {\r\n    \r\n    struct User {\r\n        string username;\r\n        string email;\r\n        string password; \r\n        address userAddress;\r\n        address walletAddress; \r\n    }\r\n\r\n    // Mapping to store users\r\n    mapping(bytes32 => User) public userRegistry;\r\n\r\n    // Event to log user registration\r\n    event UserRegistered(string username, address userAddress, address walletAddress);\r\n\r\n    // Function to register a new user\r\n    function registerUser(string memory _username, string memory _email, string memory _password, address _walletAddress) public {\r\n        require(bytes(_username).length > 0, \"Username must not be empty\");\r\n        require(bytes(_email).length > 0, \"Email must not be empty\");\r\n        require(bytes(_password).length > 0, \"Password must not be empty\");\r\n        require(_walletAddress != address(0), \"Wallet address must be valid\");\r\n        require(userRegistry[keccak256(bytes(_email))].userAddress == address(0), \"User already registered\");\r\n\r\n        // Generate a new address for the user\r\n        address userAddress = address(uint160(uint(keccak256(abi.encodePacked(block.timestamp, msg.sender))))); // Pseudo-random generation of address\r\n\r\n        // Create a new user\r\n        User storage newUser = userRegistry[keccak256(bytes(_email))];\r\n        newUser.username = _username;\r\n        newUser.email = _email;\r\n        newUser.password = _password;\r\n        newUser.userAddress = userAddress;\r\n        newUser.walletAddress = _walletAddress; // Assign the provided wallet address to the user\r\n\r\n        // Emit event\r\n        emit UserRegistered(_username, userAddress, _walletAddress);\r\n    }\r\n\r\n    // Function to retrieve user data using email\r\n    function getUserData(string memory _email) public view returns (string memory, string memory, address, address) {\r\n        User memory user = userRegistry[keccak256(bytes(_email))];\r\n        require(bytes(user.username).length > 0, \"User not found\");\r\n        return (user.username, user.email, user.userAddress, user.walletAddress);\r\n    }\r\n}\r\n",
  "sourcePath": "C:\\Users\\SaiDheerajPeketi\\WebstormProjects\\DiabolicTale\\Blockchain\\contracts\\Singup.sol",
  "compiler": {
    "name": "solc",
    "version": "0.8.13+commit.abaa5c0e.Emscripten.clang"
  },
  "schemaVersion": "3.4.16",
  "updatedAt": "2024-04-20T19:53:44.571Z",
  "devdoc": {
    "kind": "dev",
    "methods": {},
    "version": 1
  },
  "userdoc": {
    "kind": "user",
    "methods": {},
    "version": 1
  }
}