{
  "contractName": "smePost",
  "abi": [
    {
      "inputs": [],
      "name": "smePostCount",
      "outputs": [
        {
          "internalType": "uint256",
          "name": "",
          "type": "uint256"
        }
      ],
      "stateMutability": "view",
      "type": "function",
      "constant": true
    },
    {
      "inputs": [
        {
          "internalType": "uint256",
          "name": "",
          "type": "uint256"
        }
      ],
      "name": "smePosts",
      "outputs": [
        {
          "internalType": "uint256",
          "name": "postID",
          "type": "uint256"
        },
        {
          "internalType": "string",
          "name": "bID",
          "type": "string"
        },
        {
          "internalType": "string",
          "name": "postContent",
          "type": "string"
        },
        {
          "internalType": "string",
          "name": "contact",
          "type": "string"
        }
      ],
      "stateMutability": "view",
      "type": "function",
      "constant": true
    },
    {
      "inputs": [
        {
          "internalType": "string",
          "name": "_bid",
          "type": "string"
        },
        {
          "internalType": "string",
          "name": "_content",
          "type": "string"
        },
        {
          "internalType": "string",
          "name": "_contact",
          "type": "string"
        }
      ],
      "name": "createPost",
      "outputs": [],
      "stateMutability": "nonpayable",
      "type": "function"
    },
    {
      "inputs": [
        {
          "internalType": "uint256",
          "name": "_postID",
          "type": "uint256"
        }
      ],
      "name": "readPost",
      "outputs": [
        {
          "internalType": "uint256",
          "name": "",
          "type": "uint256"
        },
        {
          "internalType": "string",
          "name": "",
          "type": "string"
        },
        {
          "internalType": "string",
          "name": "",
          "type": "string"
        },
        {
          "internalType": "string",
          "name": "",
          "type": "string"
        }
      ],
      "stateMutability": "view",
      "type": "function",
      "constant": true
    }
  ],
  "bytecode": "0x60806040526000805534801561001457600080fd5b50610aa3806100246000396000f3fe608060405234801561001057600080fd5b506004361061004c5760003560e01c80634d6a608214610051578063ca6f69f514610084578063e5a2136c146100b7578063e8a4a1eb146100d5575b600080fd5b61006b60048036038101906100669190610670565b6100f1565b60405161007b9493929190610745565b60405180910390f35b61009e60048036038101906100999190610670565b6102b9565b6040516100ae9493929190610745565b60405180910390f35b6100bf6104c6565b6040516100cc919061079f565b60405180910390f35b6100ef60048036038101906100ea91906108ef565b6104cc565b005b600160205280600052604060002060009150905080600001549080600101805461011a906109c5565b80601f0160208091040260200160405190810160405280929190818152602001828054610146906109c5565b80156101935780601f1061016857610100808354040283529160200191610193565b820191906000526020600020905b81548152906001019060200180831161017657829003601f168201915b5050505050908060020180546101a8906109c5565b80601f01602080910402602001604051908101604052809291908181526020018280546101d4906109c5565b80156102215780601f106101f657610100808354040283529160200191610221565b820191906000526020600020905b81548152906001019060200180831161020457829003601f168201915b505050505090806003018054610236906109c5565b80601f0160208091040260200160405190810160405280929190818152602001828054610262906109c5565b80156102af5780601f10610284576101008083540402835291602001916102af565b820191906000526020600020905b81548152906001019060200180831161029257829003601f168201915b5050505050905084565b60006060806060607f9450600060016000878152602001908152602001600020604051806080016040529081600082015481526020016001820180546102fe906109c5565b80601f016020809104026020016040519081016040528092919081815260200182805461032a906109c5565b80156103775780601f1061034c57610100808354040283529160200191610377565b820191906000526020600020905b81548152906001019060200180831161035a57829003601f168201915b50505050508152602001600282018054610390906109c5565b80601f01602080910402602001604051908101604052809291908181526020018280546103bc906109c5565b80156104095780601f106103de57610100808354040283529160200191610409565b820191906000526020600020905b8154815290600101906020018083116103ec57829003601f168201915b50505050508152602001600382018054610422906109c5565b80601f016020809104026020016040519081016040528092919081815260200182805461044e906109c5565b801561049b5780601f106104705761010080835404028352916020019161049b565b820191906000526020600020905b81548152906001019060200180831161047e57829003601f168201915b5050505050815250509050858160200151826040015183606001519450945094509450509193509193565b60005481565b6000808154809291906104de90610a25565b919050555060405180608001604052806000548152602001848152602001838152602001828152506001600080548152602001908152602001600020600082015181600001556020820151816001019080519060200190610540929190610583565b50604082015181600201908051906020019061055d929190610583565b50606082015181600301908051906020019061057a929190610583565b50905050505050565b82805461058f906109c5565b90600052602060002090601f0160209004810192826105b157600085556105f8565b82601f106105ca57805160ff19168380011785556105f8565b828001600101855582156105f8579182015b828111156105f75782518255916020019190600101906105dc565b5b5090506106059190610609565b5090565b5b8082111561062257600081600090555060010161060a565b5090565b6000604051905090565b600080fd5b600080fd5b6000819050919050565b61064d8161063a565b811461065857600080fd5b50565b60008135905061066a81610644565b92915050565b60006020828403121561068657610685610630565b5b60006106948482850161065b565b91505092915050565b6106a68161063a565b82525050565b600081519050919050565b600082825260208201905092915050565b60005b838110156106e65780820151818401526020810190506106cb565b838111156106f5576000848401525b50505050565b6000601f19601f8301169050919050565b6000610717826106ac565b61072181856106b7565b93506107318185602086016106c8565b61073a816106fb565b840191505092915050565b600060808201905061075a600083018761069d565b818103602083015261076c818661070c565b90508181036040830152610780818561070c565b90508181036060830152610794818461070c565b905095945050505050565b60006020820190506107b4600083018461069d565b92915050565b600080fd5b600080fd5b7f4e487b7100000000000000000000000000000000000000000000000000000000600052604160045260246000fd5b6107fc826106fb565b810181811067ffffffffffffffff8211171561081b5761081a6107c4565b5b80604052505050565b600061082e610626565b905061083a82826107f3565b919050565b600067ffffffffffffffff82111561085a576108596107c4565b5b610863826106fb565b9050602081019050919050565b82818337600083830152505050565b600061089261088d8461083f565b610824565b9050828152602081018484840111156108ae576108ad6107bf565b5b6108b9848285610870565b509392505050565b600082601f8301126108d6576108d56107ba565b5b81356108e684826020860161087f565b91505092915050565b60008060006060848603121561090857610907610630565b5b600084013567ffffffffffffffff81111561092657610925610635565b5b610932868287016108c1565b935050602084013567ffffffffffffffff81111561095357610952610635565b5b61095f868287016108c1565b925050604084013567ffffffffffffffff8111156109805761097f610635565b5b61098c868287016108c1565b9150509250925092565b7f4e487b7100000000000000000000000000000000000000000000000000000000600052602260045260246000fd5b600060028204905060018216806109dd57607f821691505b6020821081036109f0576109ef610996565b5b50919050565b7f4e487b7100000000000000000000000000000000000000000000000000000000600052601160045260246000fd5b6000610a308261063a565b91507fffffffffffffffffffffffffffffffffffffffffffffffffffffffffffffffff8203610a6257610a616109f6565b5b60018201905091905056fea2646970667358221220600d1b62084fc5ebb88d9fc916ffb9b538421f1ecbc856237340bad730759fcd64736f6c634300080d0033",
  "immutableReferences": {},
  "source": "pragma solidity >=0.5.0 < 0.9.0;\r\n\r\ncontract smePost {\r\n    uint public smePostCount = 0;\r\n\r\n    struct Post {\r\n        uint postID;\r\n        string bID;\r\n        string postContent;\r\n        string contact;\r\n    }\r\n\r\n    mapping(uint => Post) public smePosts;\r\n\r\n    function createPost(string memory _bid, string memory _content, string memory _contact) public {\r\n        smePostCount ++;\r\n        smePosts[smePostCount] = Post(smePostCount, _bid, _content, _contact);\r\n    }\r\n\r\n    function readPost(uint _postID) external view returns (uint, string memory, string memory, string memory) {\r\n        _postID = 127;\r\n        Post memory post = smePosts[_postID];\r\n        return (_postID, post.bID, post.postContent, post.contact);\r\n    }\r\n}",
  "sourcePath": "C:\\Users\\SaiDheerajPeketi\\WebstormProjects\\DiabolicTale\\Blockchain\\contracts\\smePost.sol",
  "compiler": {
    "name": "solc",
    "version": "0.8.13+commit.abaa5c0e.Emscripten.clang"
  },
  "schemaVersion": "3.4.16",
  "updatedAt": "2024-04-20T09:08:28.212Z",
  "networkType": "ethereum",
  "devdoc": {
    "kind": "dev",
    "methods": {},
    "version": 1
  },
  "userdoc": {
    "kind": "user",
    "methods": {},
    "version": 1
  }
}