{
  "contractName": "smePost",
  "abi": [
    {
      "inputs": [],
      "stateMutability": "nonpayable",
      "type": "constructor"
    },
    {
      "inputs": [],
      "name": "postCount",
      "outputs": [
        {
          "internalType": "uint256",
          "name": "",
          "type": "uint256"
        }
      ],
      "stateMutability": "view",
      "type": "function",
      "constant": true
    },
    {
      "inputs": [
        {
          "internalType": "uint256",
          "name": "",
          "type": "uint256"
        }
      ],
      "name": "posts",
      "outputs": [
        {
          "internalType": "uint256",
          "name": "postID",
          "type": "uint256"
        },
        {
          "internalType": "string",
          "name": "bID",
          "type": "string"
        },
        {
          "internalType": "int256",
          "name": "creditScore",
          "type": "int256"
        },
        {
          "internalType": "string",
          "name": "postContent",
          "type": "string"
        },
        {
          "internalType": "string",
          "name": "typePost",
          "type": "string"
        }
      ],
      "stateMutability": "view",
      "type": "function",
      "constant": true
    },
    {
      "inputs": [
        {
          "internalType": "string",
          "name": "_bid",
          "type": "string"
        },
        {
          "internalType": "int256",
          "name": "_creditscore",
          "type": "int256"
        },
        {
          "internalType": "string",
          "name": "_content",
          "type": "string"
        },
        {
          "internalType": "string",
          "name": "_type",
          "type": "string"
        }
      ],
      "name": "createPost",
      "outputs": [],
      "stateMutability": "nonpayable",
      "type": "function"
    }
  ],
  "bytecode": "0x6080604052600080553480156200001557600080fd5b50620000ca6040518060400160405280600a81526020017f414243444531303030300000000000000000000000000000000000000000000081525060646040518060400160405280600b81526020017f48656c6c6f20506f7374310000000000000000000000000000000000000000008152506040518060400160405280600581526020017f5479706531000000000000000000000000000000000000000000000000000000815250620002ee60201b60201c565b6200017e6040518060400160405280600a81526020017f414243444532303030300000000000000000000000000000000000000000000081525060c86040518060400160405280600881526020017f486920506f7374320000000000000000000000000000000000000000000000008152506040518060400160405280600581526020017f5479706532000000000000000000000000000000000000000000000000000000815250620002ee60201b60201c565b620002336040518060400160405280600a81526020017f414243444533303030300000000000000000000000000000000000000000000081525061012c6040518060400160405280600b81526020017f48656c6c6f20506f7374330000000000000000000000000000000000000000008152506040518060400160405280600581526020017f5479706531000000000000000000000000000000000000000000000000000000815250620002ee60201b60201c565b620002e86040518060400160405280600a81526020017f41424344453430303030000000000000000000000000000000000000000000008152506101906040518060400160405280600a81526020017f486f6c6120506f737434000000000000000000000000000000000000000000008152506040518060400160405280600581526020017f5479706533000000000000000000000000000000000000000000000000000000815250620002ee60201b60201c565b62000558565b6000808154809291906200030290620004a7565b91905055506040518060a0016040528060005481526020018581526020018481526020018381526020018281525060016000805481526020019081526020016000206000820151816000015560208201518160010190805190602001906200036c929190620003be565b5060408201518160020155606082015181600301908051906020019062000395929190620003be565b506080820151816004019080519060200190620003b4929190620003be565b5090505050505050565b828054620003cc9062000523565b90600052602060002090601f016020900481019282620003f057600085556200043c565b82601f106200040b57805160ff19168380011785556200043c565b828001600101855582156200043c579182015b828111156200043b5782518255916020019190600101906200041e565b5b5090506200044b91906200044f565b5090565b5b808211156200046a57600081600090555060010162000450565b5090565b7f4e487b7100000000000000000000000000000000000000000000000000000000600052601160045260246000fd5b6000819050919050565b6000620004b4826200049d565b91507fffffffffffffffffffffffffffffffffffffffffffffffffffffffffffffffff8203620004e957620004e86200046e565b5b600182019050919050565b7f4e487b7100000000000000000000000000000000000000000000000000000000600052602260045260246000fd5b600060028204905060018216806200053c57607f821691505b602082108103620005525762000551620004f4565b5b50919050565b6108d780620005686000396000f3fe608060405234801561001057600080fd5b50600436106100415760003560e01c80630b1e7f831461004657806317906c2e1461007a578063a4b3e44f14610098575b600080fd5b610060600480360381019061005b919061043d565b6100b4565b60405161007195949392919061052b565b60405180910390f35b610082610282565b60405161008f9190610593565b60405180910390f35b6100b260048036038101906100ad919061070f565b610288565b005b60016020528060005260406000206000915090508060000154908060010180546100dd906107f9565b80601f0160208091040260200160405190810160405280929190818152602001828054610109906107f9565b80156101565780601f1061012b57610100808354040283529160200191610156565b820191906000526020600020905b81548152906001019060200180831161013957829003601f168201915b505050505090806002015490806003018054610171906107f9565b80601f016020809104026020016040519081016040528092919081815260200182805461019d906107f9565b80156101ea5780601f106101bf576101008083540402835291602001916101ea565b820191906000526020600020905b8154815290600101906020018083116101cd57829003601f168201915b5050505050908060040180546101ff906107f9565b80601f016020809104026020016040519081016040528092919081815260200182805461022b906107f9565b80156102785780601f1061024d57610100808354040283529160200191610278565b820191906000526020600020905b81548152906001019060200180831161025b57829003601f168201915b5050505050905085565b60005481565b60008081548092919061029a90610859565b91905055506040518060a001604052806000548152602001858152602001848152602001838152602001828152506001600080548152602001908152602001600020600082015181600001556020820151816001019080519060200190610302929190610350565b50604082015181600201556060820151816003019080519060200190610329929190610350565b506080820151816004019080519060200190610346929190610350565b5090505050505050565b82805461035c906107f9565b90600052602060002090601f01602090048101928261037e57600085556103c5565b82601f1061039757805160ff19168380011785556103c5565b828001600101855582156103c5579182015b828111156103c45782518255916020019190600101906103a9565b5b5090506103d291906103d6565b5090565b5b808211156103ef5760008160009055506001016103d7565b5090565b6000604051905090565b600080fd5b600080fd5b6000819050919050565b61041a81610407565b811461042557600080fd5b50565b60008135905061043781610411565b92915050565b600060208284031215610453576104526103fd565b5b600061046184828501610428565b91505092915050565b61047381610407565b82525050565b600081519050919050565b600082825260208201905092915050565b60005b838110156104b3578082015181840152602081019050610498565b838111156104c2576000848401525b50505050565b6000601f19601f8301169050919050565b60006104e482610479565b6104ee8185610484565b93506104fe818560208601610495565b610507816104c8565b840191505092915050565b6000819050919050565b61052581610512565b82525050565b600060a082019050610540600083018861046a565b818103602083015261055281876104d9565b9050610561604083018661051c565b818103606083015261057381856104d9565b9050818103608083015261058781846104d9565b90509695505050505050565b60006020820190506105a8600083018461046a565b92915050565b600080fd5b600080fd5b7f4e487b7100000000000000000000000000000000000000000000000000000000600052604160045260246000fd5b6105f0826104c8565b810181811067ffffffffffffffff8211171561060f5761060e6105b8565b5b80604052505050565b60006106226103f3565b905061062e82826105e7565b919050565b600067ffffffffffffffff82111561064e5761064d6105b8565b5b610657826104c8565b9050602081019050919050565b82818337600083830152505050565b600061068661068184610633565b610618565b9050828152602081018484840111156106a2576106a16105b3565b5b6106ad848285610664565b509392505050565b600082601f8301126106ca576106c96105ae565b5b81356106da848260208601610673565b91505092915050565b6106ec81610512565b81146106f757600080fd5b50565b600081359050610709816106e3565b92915050565b60008060008060808587031215610729576107286103fd565b5b600085013567ffffffffffffffff81111561074757610746610402565b5b610753878288016106b5565b9450506020610764878288016106fa565b935050604085013567ffffffffffffffff81111561078557610784610402565b5b610791878288016106b5565b925050606085013567ffffffffffffffff8111156107b2576107b1610402565b5b6107be878288016106b5565b91505092959194509250565b7f4e487b7100000000000000000000000000000000000000000000000000000000600052602260045260246000fd5b6000600282049050600182168061081157607f821691505b602082108103610824576108236107ca565b5b50919050565b7f4e487b7100000000000000000000000000000000000000000000000000000000600052601160045260246000fd5b600061086482610407565b91507fffffffffffffffffffffffffffffffffffffffffffffffffffffffffffffffff82036108965761089561082a565b5b60018201905091905056fea2646970667358221220f40ca6f61b3d8e7dfc275767f98094ee6a20c88cda9186759053467b921bd76e64736f6c634300080d0033",
  "immutableReferences": {},
  "source": "pragma solidity ^0.8.13;\r\n\r\ncontract smePost {\r\n    uint public postCount = 0;\r\n\r\n    struct Post {\r\n        uint postID;\r\n        string bID;\r\n        int creditScore;\r\n        string postContent;\r\n        string typePost;\r\n    }\r\n\r\n    mapping(uint => Post) public posts;\r\n\r\n    constructor() public {\r\n        createPost(\"ABCDE10000\", 100, \"Hello Post1\", \"Type1\");\r\n        createPost(\"ABCDE20000\", 200, \"Hi Post2\", \"Type2\");\r\n        createPost(\"ABCDE30000\", 300, \"Hello Post3\", \"Type1\");\r\n        createPost(\"ABCDE40000\", 400, \"Hola Post4\", \"Type3\");\r\n    }\r\n\r\n    function createPost(string memory _bid, int _creditscore, string memory _content, string memory _type) public {\r\n        postCount ++;\r\n        posts[postCount] = Post(postCount, _bid, _creditscore, _content, _type);\r\n    }\r\n}",
  "sourcePath": "C:\\Users\\SaiDheerajPeketi\\WebstormProjects\\DiabolicTale\\Blockchain\\contracts\\smePost.sol",
  "compiler": {
    "name": "solc",
    "version": "0.8.13+commit.abaa5c0e.Emscripten.clang"
  },
  "schemaVersion": "3.4.16",
  "updatedAt": "2024-04-19T23:05:50.413Z",
  "networkType": "ethereum",
  "devdoc": {
    "kind": "dev",
    "methods": {},
    "version": 1
  },
  "userdoc": {
    "kind": "user",
    "methods": {},
    "version": 1
  }
}