{
  "contractName": "smePost",
  "abi": [
    {
      "inputs": [],
      "name": "smePostCount",
      "outputs": [
        {
          "internalType": "uint256",
          "name": "",
          "type": "uint256"
        }
      ],
      "stateMutability": "view",
      "type": "function",
      "constant": true
    },
    {
      "inputs": [
        {
          "internalType": "uint256",
          "name": "",
          "type": "uint256"
        }
      ],
      "name": "smePosts",
      "outputs": [
        {
          "internalType": "uint256",
          "name": "postID",
          "type": "uint256"
        },
        {
          "internalType": "string",
          "name": "bID",
          "type": "string"
        },
        {
          "internalType": "string",
          "name": "postContent",
          "type": "string"
        },
        {
          "internalType": "string",
          "name": "contact",
          "type": "string"
        }
      ],
      "stateMutability": "view",
      "type": "function",
      "constant": true
    },
    {
      "inputs": [
        {
          "internalType": "string",
          "name": "_bid",
          "type": "string"
        },
        {
          "internalType": "string",
          "name": "_content",
          "type": "string"
        },
        {
          "internalType": "string",
          "name": "_contact",
          "type": "string"
        }
      ],
      "name": "createPost",
      "outputs": [],
      "stateMutability": "nonpayable",
      "type": "function"
    },
    {
      "inputs": [
        {
          "internalType": "uint256",
          "name": "_postID",
          "type": "uint256"
        }
      ],
      "name": "readPost",
      "outputs": [
        {
          "internalType": "uint256",
          "name": "",
          "type": "uint256"
        },
        {
          "internalType": "string",
          "name": "",
          "type": "string"
        },
        {
          "internalType": "string",
          "name": "",
          "type": "string"
        },
        {
          "internalType": "string",
          "name": "",
          "type": "string"
        }
      ],
      "stateMutability": "view",
      "type": "function",
      "constant": true
    }
  ],
  "bytecode": "0x60806040526000805534801561001457600080fd5b50610b60806100246000396000f3fe608060405234801561001057600080fd5b506004361061004c5760003560e01c80634d6a608214610051578063ca6f69f514610084578063e5a2136c146100b7578063e8a4a1eb146100d5575b600080fd5b61006b600480360381019061006691906106c1565b6100f1565b60405161007b9493929190610796565b60405180910390f35b61009e600480360381019061009991906106c1565b6102b9565b6040516100ae9493929190610796565b60405180910390f35b6100bf610517565b6040516100cc91906107f0565b60405180910390f35b6100ef60048036038101906100ea9190610940565b61051d565b005b600160205280600052604060002060009150905080600001549080600101805461011a90610a16565b80601f016020809104026020016040519081016040528092919081815260200182805461014690610a16565b80156101935780601f1061016857610100808354040283529160200191610193565b820191906000526020600020905b81548152906001019060200180831161017657829003601f168201915b5050505050908060020180546101a890610a16565b80601f01602080910402602001604051908101604052809291908181526020018280546101d490610a16565b80156102215780601f106101f657610100808354040283529160200191610221565b820191906000526020600020905b81548152906001019060200180831161020457829003601f168201915b50505050509080600301805461023690610a16565b80601f016020809104026020016040519081016040528092919081815260200182805461026290610a16565b80156102af5780601f10610284576101008083540402835291602001916102af565b820191906000526020600020905b81548152906001019060200180831161029257829003601f168201915b5050505050905084565b600060608060606000851180156102d257506000548511155b610311576040517f08c379a000000000000000000000000000000000000000000000000000000000815260040161030890610a93565b60405180910390fd5b6000600160008781526020019081526020016000206040518060800160405290816000820154815260200160018201805461034b90610a16565b80601f016020809104026020016040519081016040528092919081815260200182805461037790610a16565b80156103c45780601f10610399576101008083540402835291602001916103c4565b820191906000526020600020905b8154815290600101906020018083116103a757829003601f168201915b505050505081526020016002820180546103dd90610a16565b80601f016020809104026020016040519081016040528092919081815260200182805461040990610a16565b80156104565780601f1061042b57610100808354040283529160200191610456565b820191906000526020600020905b81548152906001019060200180831161043957829003601f168201915b5050505050815260200160038201805461046f90610a16565b80601f016020809104026020016040519081016040528092919081815260200182805461049b90610a16565b80156104e85780601f106104bd576101008083540402835291602001916104e8565b820191906000526020600020905b8154815290600101906020018083116104cb57829003601f168201915b505050505081525050905080600001518160200151826040015183606001519450945094509450509193509193565b60005481565b60008081548092919061052f90610ae2565b9190505550604051806080016040528060005481526020018481526020018381526020018281525060016000805481526020019081526020016000206000820151816000015560208201518160010190805190602001906105919291906105d4565b5060408201518160020190805190602001906105ae9291906105d4565b5060608201518160030190805190602001906105cb9291906105d4565b50905050505050565b8280546105e090610a16565b90600052602060002090601f0160209004810192826106025760008555610649565b82601f1061061b57805160ff1916838001178555610649565b82800160010185558215610649579182015b8281111561064857825182559160200191906001019061062d565b5b509050610656919061065a565b5090565b5b8082111561067357600081600090555060010161065b565b5090565b6000604051905090565b600080fd5b600080fd5b6000819050919050565b61069e8161068b565b81146106a957600080fd5b50565b6000813590506106bb81610695565b92915050565b6000602082840312156106d7576106d6610681565b5b60006106e5848285016106ac565b91505092915050565b6106f78161068b565b82525050565b600081519050919050565b600082825260208201905092915050565b60005b8381101561073757808201518184015260208101905061071c565b83811115610746576000848401525b50505050565b6000601f19601f8301169050919050565b6000610768826106fd565b6107728185610708565b9350610782818560208601610719565b61078b8161074c565b840191505092915050565b60006080820190506107ab60008301876106ee565b81810360208301526107bd818661075d565b905081810360408301526107d1818561075d565b905081810360608301526107e5818461075d565b905095945050505050565b600060208201905061080560008301846106ee565b92915050565b600080fd5b600080fd5b7f4e487b7100000000000000000000000000000000000000000000000000000000600052604160045260246000fd5b61084d8261074c565b810181811067ffffffffffffffff8211171561086c5761086b610815565b5b80604052505050565b600061087f610677565b905061088b8282610844565b919050565b600067ffffffffffffffff8211156108ab576108aa610815565b5b6108b48261074c565b9050602081019050919050565b82818337600083830152505050565b60006108e36108de84610890565b610875565b9050828152602081018484840111156108ff576108fe610810565b5b61090a8482856108c1565b509392505050565b600082601f8301126109275761092661080b565b5b81356109378482602086016108d0565b91505092915050565b60008060006060848603121561095957610958610681565b5b600084013567ffffffffffffffff81111561097757610976610686565b5b61098386828701610912565b935050602084013567ffffffffffffffff8111156109a4576109a3610686565b5b6109b086828701610912565b925050604084013567ffffffffffffffff8111156109d1576109d0610686565b5b6109dd86828701610912565b9150509250925092565b7f4e487b7100000000000000000000000000000000000000000000000000000000600052602260045260246000fd5b60006002820490506001821680610a2e57607f821691505b602082108103610a4157610a406109e7565b5b50919050565b7f496e76616c696420706f73742049440000000000000000000000000000000000600082015250565b6000610a7d600f83610708565b9150610a8882610a47565b602082019050919050565b60006020820190508181036000830152610aac81610a70565b9050919050565b7f4e487b7100000000000000000000000000000000000000000000000000000000600052601160045260246000fd5b6000610aed8261068b565b91507fffffffffffffffffffffffffffffffffffffffffffffffffffffffffffffffff8203610b1f57610b1e610ab3565b5b60018201905091905056fea2646970667358221220daa91efce5e58c8813ac7a6e39374ae290b4d3937e785029cbe78d608b8a18d864736f6c634300080d0033",
  "immutableReferences": {},
  "source": "pragma solidity >=0.5.0 < 0.9.0;\r\n\r\ncontract smePost {\r\n    uint public smePostCount = 0;\r\n\r\n    struct Post {\r\n        uint postID;\r\n        string bID;\r\n        string postContent;\r\n        string contact;\r\n    }\r\n\r\n    mapping(uint => Post) public smePosts;\r\n\r\n    function createPost(string memory _bid, string memory _content, string memory _contact) public {\r\n        smePostCount ++;\r\n        smePosts[smePostCount] = Post(smePostCount, _bid, _content, _contact);\r\n    }\r\n\r\n    function readPost(uint _postID) public view returns (uint, string memory, string memory, string memory) {\r\n        require(_postID > 0 && _postID <= smePostCount, \"Invalid post ID\");\r\n        \r\n        Post memory post = smePosts[_postID];\r\n        return (post.postID, post.bID, post.postContent, post.contact);\r\n    }\r\n}\r\n",
  "sourcePath": "C:\\Users\\SaiDheerajPeketi\\WebstormProjects\\DiabolicTale\\Blockchain\\contracts\\smePost.sol",
  "compiler": {
    "name": "solc",
    "version": "0.8.13+commit.abaa5c0e.Emscripten.clang"
  },
  "schemaVersion": "3.4.16",
  "updatedAt": "2024-04-20T13:57:34.172Z",
  "networkType": "ethereum",
  "devdoc": {
    "kind": "dev",
    "methods": {},
    "version": 1
  },
  "userdoc": {
    "kind": "user",
    "methods": {},
    "version": 1
  }
}