{
  "contractName": "smeReg",
  "abi": [
    {
      "anonymous": false,
      "inputs": [
        {
          "indexed": false,
          "internalType": "string",
          "name": "businessID",
          "type": "string"
        },
        {
          "indexed": false,
          "internalType": "address",
          "name": "smeAddress",
          "type": "address"
        }
      ],
      "name": "SMERegistered",
      "type": "event"
    },
    {
      "inputs": [
        {
          "internalType": "string",
          "name": "",
          "type": "string"
        }
      ],
      "name": "smeRegistry",
      "outputs": [
        {
          "internalType": "string",
          "name": "businessID",
          "type": "string"
        },
        {
          "internalType": "uint256",
          "name": "creditScore",
          "type": "uint256"
        },
        {
          "internalType": "string",
          "name": "companyName",
          "type": "string"
        },
        {
          "internalType": "string",
          "name": "contactDetails",
          "type": "string"
        },
        {
          "internalType": "address",
          "name": "smeAddress",
          "type": "address"
        }
      ],
      "stateMutability": "view",
      "type": "function",
      "constant": true
    },
    {
      "inputs": [
        {
          "internalType": "string",
          "name": "_businessID",
          "type": "string"
        },
        {
          "internalType": "uint256",
          "name": "_creditScore",
          "type": "uint256"
        },
        {
          "internalType": "string",
          "name": "_companyName",
          "type": "string"
        },
        {
          "internalType": "string",
          "name": "_contactDetails",
          "type": "string"
        }
      ],
      "name": "registerSME",
      "outputs": [],
      "stateMutability": "nonpayable",
      "type": "function"
    },
    {
      "inputs": [
        {
          "internalType": "string",
          "name": "_businessID",
          "type": "string"
        }
      ],
      "name": "getSMEPrivateKey",
      "outputs": [
        {
          "internalType": "bytes",
          "name": "",
          "type": "bytes"
        }
      ],
      "stateMutability": "view",
      "type": "function",
      "constant": true
    }
  ],
  "bytecode": "0x608060405234801561001057600080fd5b50610cee806100206000396000f3fe608060405234801561001057600080fd5b50600436106100415760003560e01c80630d914b2e14610046578063ad835e4a1461007a578063da355378146100aa575b600080fd5b610060600480360381019061005b9190610777565b6100c6565b6040516100719594939291906108a2565b60405180910390f35b610094600480360381019061008f9190610777565b6102ca565b6040516100a1919061095f565b60405180910390f35b6100c460048036038101906100bf91906109ad565b610336565b005b6000818051602081018201805184825260208301602085012081835280955050505050506000915090508060000180546100ff90610a97565b80601f016020809104026020016040519081016040528092919081815260200182805461012b90610a97565b80156101785780601f1061014d57610100808354040283529160200191610178565b820191906000526020600020905b81548152906001019060200180831161015b57829003601f168201915b50505050509080600101549080600201805461019390610a97565b80601f01602080910402602001604051908101604052809291908181526020018280546101bf90610a97565b801561020c5780601f106101e15761010080835404028352916020019161020c565b820191906000526020600020905b8154815290600101906020018083116101ef57829003601f168201915b50505050509080600301805461022190610a97565b80601f016020809104026020016040519081016040528092919081815260200182805461024d90610a97565b801561029a5780601f1061026f5761010080835404028352916020019161029a565b820191906000526020600020905b81548152906001019060200180831161027d57829003601f168201915b5050505050908060040160009054906101000a900473ffffffffffffffffffffffffffffffffffffffff16905085565b6060426000836040516102dd9190610b04565b908152602001604051809103902060040160009054906101000a900473ffffffffffffffffffffffffffffffffffffffff16604051602001610320929190610b84565b6040516020818303038152906040529050919050565b600084511161037a576040517f08c379a000000000000000000000000000000000000000000000000000000000815260040161037190610bfc565b60405180910390fd5b600073ffffffffffffffffffffffffffffffffffffffff166000856040516103a29190610b04565b908152602001604051809103902060040160009054906101000a900473ffffffffffffffffffffffffffffffffffffffff1673ffffffffffffffffffffffffffffffffffffffff161461042a576040517f08c379a000000000000000000000000000000000000000000000000000000000815260040161042190610c68565b60405180910390fd5b6000423360405160200161043f929190610b84565b6040516020818303038152906040528051906020012060001c90506000423360405160200161046f929190610b84565b6040516020818303038152906040529050600080876040516104919190610b04565b90815260200160405180910390209050868160000190805190602001906104b992919061057a565b50858160010181905550848160020190805190602001906104db92919061057a565b50838160030190805190602001906104f492919061057a565b50828160040160006101000a81548173ffffffffffffffffffffffffffffffffffffffff021916908373ffffffffffffffffffffffffffffffffffffffff1602179055507f5fa271b86a3676b63a9d7a3d6b515d0ab2a4e89164eb06a0a92d759bd8e6c7038784604051610569929190610c88565b60405180910390a150505050505050565b82805461058690610a97565b90600052602060002090601f0160209004810192826105a857600085556105ef565b82601f106105c157805160ff19168380011785556105ef565b828001600101855582156105ef579182015b828111156105ee5782518255916020019190600101906105d3565b5b5090506105fc9190610600565b5090565b5b80821115610619576000816000905550600101610601565b5090565b6000604051905090565b600080fd5b600080fd5b600080fd5b600080fd5b6000601f19601f8301169050919050565b7f4e487b7100000000000000000000000000000000000000000000000000000000600052604160045260246000fd5b6106848261063b565b810181811067ffffffffffffffff821117156106a3576106a261064c565b5b80604052505050565b60006106b661061d565b90506106c2828261067b565b919050565b600067ffffffffffffffff8211156106e2576106e161064c565b5b6106eb8261063b565b9050602081019050919050565b82818337600083830152505050565b600061071a610715846106c7565b6106ac565b90508281526020810184848401111561073657610735610636565b5b6107418482856106f8565b509392505050565b600082601f83011261075e5761075d610631565b5b813561076e848260208601610707565b91505092915050565b60006020828403121561078d5761078c610627565b5b600082013567ffffffffffffffff8111156107ab576107aa61062c565b5b6107b784828501610749565b91505092915050565b600081519050919050565b600082825260208201905092915050565b60005b838110156107fa5780820151818401526020810190506107df565b83811115610809576000848401525b50505050565b600061081a826107c0565b61082481856107cb565b93506108348185602086016107dc565b61083d8161063b565b840191505092915050565b6000819050919050565b61085b81610848565b82525050565b600073ffffffffffffffffffffffffffffffffffffffff82169050919050565b600061088c82610861565b9050919050565b61089c81610881565b82525050565b600060a08201905081810360008301526108bc818861080f565b90506108cb6020830187610852565b81810360408301526108dd818661080f565b905081810360608301526108f1818561080f565b90506109006080830184610893565b9695505050505050565b600081519050919050565b600082825260208201905092915050565b60006109318261090a565b61093b8185610915565b935061094b8185602086016107dc565b6109548161063b565b840191505092915050565b600060208201905081810360008301526109798184610926565b905092915050565b61098a81610848565b811461099557600080fd5b50565b6000813590506109a781610981565b92915050565b600080600080608085870312156109c7576109c6610627565b5b600085013567ffffffffffffffff8111156109e5576109e461062c565b5b6109f187828801610749565b9450506020610a0287828801610998565b935050604085013567ffffffffffffffff811115610a2357610a2261062c565b5b610a2f87828801610749565b925050606085013567ffffffffffffffff811115610a5057610a4f61062c565b5b610a5c87828801610749565b91505092959194509250565b7f4e487b7100000000000000000000000000000000000000000000000000000000600052602260045260246000fd5b60006002820490506001821680610aaf57607f821691505b602082108103610ac257610ac1610a68565b5b50919050565b600081905092915050565b6000610ade826107c0565b610ae88185610ac8565b9350610af88185602086016107dc565b80840191505092915050565b6000610b108284610ad3565b915081905092915050565b6000819050919050565b610b36610b3182610848565b610b1b565b82525050565b60008160601b9050919050565b6000610b5482610b3c565b9050919050565b6000610b6682610b49565b9050919050565b610b7e610b7982610881565b610b5b565b82525050565b6000610b908285610b25565b602082019150610ba08284610b6d565b6014820191508190509392505050565b7f427573696e657373204944206d757374206e6f7420626520656d707479000000600082015250565b6000610be6601d836107cb565b9150610bf182610bb0565b602082019050919050565b60006020820190508181036000830152610c1581610bd9565b9050919050565b7f534d4520616c7265616479207265676973746572656400000000000000000000600082015250565b6000610c526016836107cb565b9150610c5d82610c1c565b602082019050919050565b60006020820190508181036000830152610c8181610c45565b9050919050565b60006040820190508181036000830152610ca2818561080f565b9050610cb16020830184610893565b939250505056fea2646970667358221220181db87e21db5fc21a9b09707ad4e97c969e0ac354bf54fb033c9b943df3f1b864736f6c634300080d0033",
  "immutableReferences": {},
  "source": "pragma solidity >=0.5.0 <0.9.0;\r\n\r\ncontract smeReg {\r\n    // Struct to represent an SME\r\n    struct SME {\r\n        string businessID;\r\n        uint creditScore;\r\n        string companyName;\r\n        string contactDetails;\r\n        address smeAddress;\r\n    }\r\n\r\n    // Mapping to store SMEs\r\n    mapping(string => SME) public smeRegistry;\r\n\r\n    // Event to log SME registration\r\n    event SMERegistered(string businessID, address smeAddress);\r\n\r\n    // Function to register a new SME\r\n    function registerSME(string memory _businessID, uint _creditScore, string memory _companyName, string memory _contactDetails) public {\r\n        require(bytes(_businessID).length > 0, \"Business ID must not be empty\");\r\n        require(smeRegistry[_businessID].smeAddress == address(0), \"SME already registered\");\r\n\r\n        // Generate a new account for the SME\r\n        address smeAddress = address(uint160(uint(keccak256(abi.encodePacked(block.timestamp, msg.sender))))); // Pseudo-random generation of address\r\n        bytes memory privateKey = abi.encodePacked(block.timestamp, msg.sender); // Pseudo-random generation of private key\r\n\r\n        // Create a new SME\r\n        SME storage newSME = smeRegistry[_businessID];\r\n        newSME.businessID = _businessID;\r\n        newSME.creditScore = _creditScore;\r\n        newSME.companyName = _companyName;\r\n        newSME.contactDetails = _contactDetails;\r\n        newSME.smeAddress = smeAddress;\r\n\r\n        // Emit event\r\n        emit SMERegistered(_businessID, smeAddress);\r\n    }\r\n\r\n    // Function to get the private key of an SME\r\n    function getSMEPrivateKey(string memory _businessID) public view returns (bytes memory) {\r\n        return abi.encodePacked(block.timestamp, smeRegistry[_businessID].smeAddress);\r\n    }\r\n}\r\n",
  "sourcePath": "C:\\Users\\SaiDheerajPeketi\\WebstormProjects\\DiabolicTale\\Blockchain\\contracts\\smeReg.sol",
  "compiler": {
    "name": "solc",
    "version": "0.8.13+commit.abaa5c0e.Emscripten.clang"
  },
  "schemaVersion": "3.4.16",
  "updatedAt": "2024-04-20T13:57:34.421Z",
  "networkType": "ethereum",
  "devdoc": {
    "kind": "dev",
    "methods": {},
    "version": 1
  },
  "userdoc": {
    "kind": "user",
    "methods": {},
    "version": 1
  }
}