{
  "contractName": "SMERegistration",
  "abi": [
    {
      "anonymous": false,
      "inputs": [
        {
          "indexed": false,
          "internalType": "string",
          "name": "businessID",
          "type": "string"
        },
        {
          "indexed": false,
          "internalType": "address",
          "name": "smeAddress",
          "type": "address"
        }
      ],
      "name": "SMERegistered",
      "type": "event"
    },
    {
      "inputs": [
        {
          "internalType": "string",
          "name": "",
          "type": "string"
        }
      ],
      "name": "smeRegistry",
      "outputs": [
        {
          "internalType": "string",
          "name": "businessID",
          "type": "string"
        },
        {
          "internalType": "uint256",
          "name": "creditScore",
          "type": "uint256"
        },
        {
          "internalType": "string",
          "name": "companyName",
          "type": "string"
        },
        {
          "internalType": "string",
          "name": "contactDetails",
          "type": "string"
        },
        {
          "internalType": "address",
          "name": "smeAddress",
          "type": "address"
        }
      ],
      "stateMutability": "view",
      "type": "function"
    },
    {
      "inputs": [
        {
          "internalType": "string",
          "name": "_businessID",
          "type": "string"
        },
        {
          "internalType": "uint256",
          "name": "_creditScore",
          "type": "uint256"
        },
        {
          "internalType": "string",
          "name": "_companyName",
          "type": "string"
        },
        {
          "internalType": "string",
          "name": "_contactDetails",
          "type": "string"
        }
      ],
      "name": "registerSME",
      "outputs": [],
      "stateMutability": "nonpayable",
      "type": "function"
    },
    {
      "inputs": [
        {
          "internalType": "string",
          "name": "_businessID",
          "type": "string"
        }
      ],
      "name": "getSMEData",
      "outputs": [
        {
          "internalType": "string",
          "name": "",
          "type": "string"
        },
        {
          "internalType": "uint256",
          "name": "",
          "type": "uint256"
        },
        {
          "internalType": "string",
          "name": "",
          "type": "string"
        },
        {
          "internalType": "string",
          "name": "",
          "type": "string"
        },
        {
          "internalType": "address",
          "name": "",
          "type": "address"
        }
      ],
      "stateMutability": "view",
      "type": "function"
    },
    {
      "inputs": [
        {
          "internalType": "string",
          "name": "_businessID",
          "type": "string"
        }
      ],
      "name": "getSMEPrivateKey",
      "outputs": [
        {
          "internalType": "bytes",
          "name": "",
          "type": "bytes"
        }
      ],
      "stateMutability": "view",
      "type": "function"
    }
  ],
  "bytecode": "0x608060405234801561001057600080fd5b50611059806100206000396000f3fe608060405234801561001057600080fd5b506004361061004c5760003560e01c80630d914b2e14610051578063ad835e4a14610085578063d5f077f9146100b5578063da355378146100e9575b600080fd5b61006b60048036038101906100669190610a76565b610105565b60405161007c959493929190610ba1565b60405180910390f35b61009f600480360381019061009a9190610a76565b610309565b6040516100ac9190610c5e565b60405180910390f35b6100cf60048036038101906100ca9190610a76565b610375565b6040516100e0959493929190610ba1565b60405180910390f35b61010360048036038101906100fe9190610cac565b610635565b005b60008180516020810182018051848252602083016020850120818352809550505050505060009150905080600001805461013e90610d96565b80601f016020809104026020016040519081016040528092919081815260200182805461016a90610d96565b80156101b75780601f1061018c576101008083540402835291602001916101b7565b820191906000526020600020905b81548152906001019060200180831161019a57829003601f168201915b5050505050908060010154908060020180546101d290610d96565b80601f01602080910402602001604051908101604052809291908181526020018280546101fe90610d96565b801561024b5780601f106102205761010080835404028352916020019161024b565b820191906000526020600020905b81548152906001019060200180831161022e57829003601f168201915b50505050509080600301805461026090610d96565b80601f016020809104026020016040519081016040528092919081815260200182805461028c90610d96565b80156102d95780601f106102ae576101008083540402835291602001916102d9565b820191906000526020600020905b8154815290600101906020018083116102bc57829003601f168201915b5050505050908060040160009054906101000a900473ffffffffffffffffffffffffffffffffffffffff16905085565b60604260008360405161031c9190610e03565b908152602001604051809103902060040160009054906101000a900473ffffffffffffffffffffffffffffffffffffffff1660405160200161035f929190610e83565b6040516020818303038152906040529050919050565b6060600060608060008060008760405161038f9190610e03565b90815260200160405180910390206040518060a00160405290816000820180546103b890610d96565b80601f01602080910402602001604051908101604052809291908181526020018280546103e490610d96565b80156104315780601f1061040657610100808354040283529160200191610431565b820191906000526020600020905b81548152906001019060200180831161041457829003601f168201915b505050505081526020016001820154815260200160028201805461045490610d96565b80601f016020809104026020016040519081016040528092919081815260200182805461048090610d96565b80156104cd5780601f106104a2576101008083540402835291602001916104cd565b820191906000526020600020905b8154815290600101906020018083116104b057829003601f168201915b505050505081526020016003820180546104e690610d96565b80601f016020809104026020016040519081016040528092919081815260200182805461051290610d96565b801561055f5780601f106105345761010080835404028352916020019161055f565b820191906000526020600020905b81548152906001019060200180831161054257829003601f168201915b505050505081526020016004820160009054906101000a900473ffffffffffffffffffffffffffffffffffffffff1673ffffffffffffffffffffffffffffffffffffffff1673ffffffffffffffffffffffffffffffffffffffff16815250509050600081600001515111610608576040517f08c379a00000000000000000000000000000000000000000000000000000000081526004016105ff90610efb565b60405180910390fd5b80600001518160200151826040015183606001518460800151955095509550955095505091939590929450565b6000845111610679576040517f08c379a000000000000000000000000000000000000000000000000000000000815260040161067090610f67565b60405180910390fd5b600073ffffffffffffffffffffffffffffffffffffffff166000856040516106a19190610e03565b908152602001604051809103902060040160009054906101000a900473ffffffffffffffffffffffffffffffffffffffff1673ffffffffffffffffffffffffffffffffffffffff1614610729576040517f08c379a000000000000000000000000000000000000000000000000000000000815260040161072090610fd3565b60405180910390fd5b6000423360405160200161073e929190610e83565b6040516020818303038152906040528051906020012060001c90506000423360405160200161076e929190610e83565b6040516020818303038152906040529050600080876040516107909190610e03565b90815260200160405180910390209050868160000190805190602001906107b8929190610879565b50858160010181905550848160020190805190602001906107da929190610879565b50838160030190805190602001906107f3929190610879565b50828160040160006101000a81548173ffffffffffffffffffffffffffffffffffffffff021916908373ffffffffffffffffffffffffffffffffffffffff1602179055507f5fa271b86a3676b63a9d7a3d6b515d0ab2a4e89164eb06a0a92d759bd8e6c7038784604051610868929190610ff3565b60405180910390a150505050505050565b82805461088590610d96565b90600052602060002090601f0160209004810192826108a757600085556108ee565b82601f106108c057805160ff19168380011785556108ee565b828001600101855582156108ee579182015b828111156108ed5782518255916020019190600101906108d2565b5b5090506108fb91906108ff565b5090565b5b80821115610918576000816000905550600101610900565b5090565b6000604051905090565b600080fd5b600080fd5b600080fd5b600080fd5b6000601f19601f8301169050919050565b7f4e487b7100000000000000000000000000000000000000000000000000000000600052604160045260246000fd5b6109838261093a565b810181811067ffffffffffffffff821117156109a2576109a161094b565b5b80604052505050565b60006109b561091c565b90506109c1828261097a565b919050565b600067ffffffffffffffff8211156109e1576109e061094b565b5b6109ea8261093a565b9050602081019050919050565b82818337600083830152505050565b6000610a19610a14846109c6565b6109ab565b905082815260208101848484011115610a3557610a34610935565b5b610a408482856109f7565b509392505050565b600082601f830112610a5d57610a5c610930565b5b8135610a6d848260208601610a06565b91505092915050565b600060208284031215610a8c57610a8b610926565b5b600082013567ffffffffffffffff811115610aaa57610aa961092b565b5b610ab684828501610a48565b91505092915050565b600081519050919050565b600082825260208201905092915050565b60005b83811015610af9578082015181840152602081019050610ade565b83811115610b08576000848401525b50505050565b6000610b1982610abf565b610b238185610aca565b9350610b33818560208601610adb565b610b3c8161093a565b840191505092915050565b6000819050919050565b610b5a81610b47565b82525050565b600073ffffffffffffffffffffffffffffffffffffffff82169050919050565b6000610b8b82610b60565b9050919050565b610b9b81610b80565b82525050565b600060a0820190508181036000830152610bbb8188610b0e565b9050610bca6020830187610b51565b8181036040830152610bdc8186610b0e565b90508181036060830152610bf08185610b0e565b9050610bff6080830184610b92565b9695505050505050565b600081519050919050565b600082825260208201905092915050565b6000610c3082610c09565b610c3a8185610c14565b9350610c4a818560208601610adb565b610c538161093a565b840191505092915050565b60006020820190508181036000830152610c788184610c25565b905092915050565b610c8981610b47565b8114610c9457600080fd5b50565b600081359050610ca681610c80565b92915050565b60008060008060808587031215610cc657610cc5610926565b5b600085013567ffffffffffffffff811115610ce457610ce361092b565b5b610cf087828801610a48565b9450506020610d0187828801610c97565b935050604085013567ffffffffffffffff811115610d2257610d2161092b565b5b610d2e87828801610a48565b925050606085013567ffffffffffffffff811115610d4f57610d4e61092b565b5b610d5b87828801610a48565b91505092959194509250565b7f4e487b7100000000000000000000000000000000000000000000000000000000600052602260045260246000fd5b60006002820490506001821680610dae57607f821691505b602082108103610dc157610dc0610d67565b5b50919050565b600081905092915050565b6000610ddd82610abf565b610de78185610dc7565b9350610df7818560208601610adb565b80840191505092915050565b6000610e0f8284610dd2565b915081905092915050565b6000819050919050565b610e35610e3082610b47565b610e1a565b82525050565b60008160601b9050919050565b6000610e5382610e3b565b9050919050565b6000610e6582610e48565b9050919050565b610e7d610e7882610b80565b610e5a565b82525050565b6000610e8f8285610e24565b602082019150610e9f8284610e6c565b6014820191508190509392505050565b7f534d45206e6f7420666f756e6400000000000000000000000000000000000000600082015250565b6000610ee5600d83610aca565b9150610ef082610eaf565b602082019050919050565b60006020820190508181036000830152610f1481610ed8565b9050919050565b7f427573696e657373204944206d757374206e6f7420626520656d707479000000600082015250565b6000610f51601d83610aca565b9150610f5c82610f1b565b602082019050919050565b60006020820190508181036000830152610f8081610f44565b9050919050565b7f534d4520616c7265616479207265676973746572656400000000000000000000600082015250565b6000610fbd601683610aca565b9150610fc882610f87565b602082019050919050565b60006020820190508181036000830152610fec81610fb0565b9050919050565b6000604082019050818103600083015261100d8185610b0e565b905061101c6020830184610b92565b939250505056fea2646970667358221220dbcbb57c2b2cf7276a836967437094bdd692b4c165599dbc67d74dc426cfd61f64736f6c634300080d0033",
  "immutableReferences": {},
  "source": "pragma solidity >=0.5.0 <0.9.0;\r\n\r\ncontract SMERegistration {\r\n    // Struct to represent an SME\r\n    struct SME {\r\n        string businessID;\r\n        uint creditScore;\r\n        string companyName;\r\n        string contactDetails;\r\n        address smeAddress;\r\n    }\r\n\r\n    // Mapping to store SMEs\r\n    mapping(string => SME) public smeRegistry;\r\n\r\n    // Event to log SME registration\r\n    event SMERegistered(string businessID, address smeAddress);\r\n\r\n    // Function to register a new SME\r\n    function registerSME(string memory _businessID, uint _creditScore, string memory _companyName, string memory _contactDetails) public {\r\n        require(bytes(_businessID).length > 0, \"Business ID must not be empty\");\r\n        require(smeRegistry[_businessID].smeAddress == address(0), \"SME already registered\");\r\n\r\n        // Generate a new account for the SME\r\n        address smeAddress = address(uint160(uint(keccak256(abi.encodePacked(block.timestamp, msg.sender))))); // Pseudo-random generation of address\r\n        bytes memory privateKey = abi.encodePacked(block.timestamp, msg.sender);\r\n\r\n        // Create a new SME\r\n        SME storage newSME = smeRegistry[_businessID];\r\n        newSME.businessID = _businessID;\r\n        newSME.creditScore = _creditScore;\r\n        newSME.companyName = _companyName;\r\n        newSME.contactDetails = _contactDetails;\r\n        newSME.smeAddress = smeAddress;\r\n\r\n        // Emit event\r\n        emit SMERegistered(_businessID, smeAddress);\r\n    }\r\n\r\n    // Function to retrieve SME data using BusinessID\r\n    function getSMEData(string memory _businessID) public view returns (string memory, uint, string memory, string memory, address) {\r\n        SME memory sme = smeRegistry[_businessID];\r\n        require(bytes(sme.businessID).length > 0, \"SME not found\");\r\n        return (sme.businessID, sme.creditScore, sme.companyName, sme.contactDetails, sme.smeAddress);\r\n    }\r\n\r\n    // Function to get the private key of an SME\r\n    function getSMEPrivateKey(string memory _businessID) public view returns (bytes memory) {\r\n        return abi.encodePacked(block.timestamp, smeRegistry[_businessID].smeAddress);\r\n    }\r\n}\r\n",
  "sourcePath": "C:\\Users\\SaiDheerajPeketi\\WebstormProjects\\DiabolicTale\\Blockchain\\contracts\\smeReg.sol",
  "compiler": {
    "name": "solc",
    "version": "0.8.13+commit.abaa5c0e.Emscripten.clang"
  },
  "schemaVersion": "3.4.16",
  "updatedAt": "2024-04-20T13:57:32.893Z",
  "devdoc": {
    "kind": "dev",
    "methods": {},
    "version": 1
  },
  "userdoc": {
    "kind": "user",
    "methods": {},
    "version": 1
  }
}